{
  "transactions": [
    {
      "hash": "0xc7f903ba63d1896a57464af733c6ade11fe66ca1b11c7e8b96ec6a784c374165",
      "transactionType": "CALL",
      "contractName": null,
      "contractAddress": "0xB2971419Bb6437856Eb9Ec8CA3e56958Af45Eee9",
      "function": "createElection(uint256,uint256,uint8,uint8,uint8,string,bytes)",
      "arguments": [
        "1714640485",
        "1714726825",
        "0",
        "0",
        "0",
        "\"QmScGXik8yAu5hYcdqvA3zyMBbMrkR9nYBRmEMvBuaZnAd\"",
        "0x30820122300d06092a864886f70d01010105000382010f003082010a0282010100a5ab902012b2cda81620ab60f95cd5dd4aa920ac019320d3a91927263f2c5d3cffbc97f07c432ce0b1e70a9ad1e20686b3a065ecf856c356aad312d33accea80927603ecd8edaf9bb0e0d9504bb78d44a29dc5ac949c1294ff4144411d722ebefe671e2151605ea3c8f50280165e0c0c5198771253fd638b18430855c91f292d6852688c1f0d395de53d0a91aa406de2678ed005a7c79e948204d5f6433c4fa663d7d59b8d61d2ddd148bb48cea457946feaaede9596d1caa34692456a55301d34c49443b7e7159b6db07b6358d59f18bbeddf5660e89b69b3a2bf924886cee5351eeae154401b01cc475dd7ce716ac10b0757c5afd8f5bc83f96ae612ccae7d0203010001"
      ],
      "transaction": {
        "type": "0x00",
        "from": "0xf9562d5eac0acfae5274aa30f7231d62818b593c",
        "to": "0xb2971419bb6437856eb9ec8ca3e56958af45eee9",
        "gas": "0x9a456",
        "value": "0x0",
        "data": "0xb12479830000000000000000000000000000000000000000000000000000000066335665000000000000000000000000000000000000000000000000000000006634a7a900000000000000000000000000000000000000000000000000000000000000000000000000000000000000000000000000000000000000000000000000000000000000000000000000000000000000000000000000000000000000000000000000000000000000000000000000000000000000000000000000000000000000e00000000000000000000000000000000000000000000000000000000000000140000000000000000000000000000000000000000000000000000000000000002e516d53634758696b387941753568596364717641337a794d42624d726b52396e5942526d454d764275615a6e4164000000000000000000000000000000000000000000000000000000000000000000000000000000000000000000000000012630820122300d06092a864886f70d01010105000382010f003082010a0282010100a5ab902012b2cda81620ab60f95cd5dd4aa920ac019320d3a91927263f2c5d3cffbc97f07c432ce0b1e70a9ad1e20686b3a065ecf856c356aad312d33accea80927603ecd8edaf9bb0e0d9504bb78d44a29dc5ac949c1294ff4144411d722ebefe671e2151605ea3c8f50280165e0c0c5198771253fd638b18430855c91f292d6852688c1f0d395de53d0a91aa406de2678ed005a7c79e948204d5f6433c4fa663d7d59b8d61d2ddd148bb48cea457946feaaede9596d1caa34692456a55301d34c49443b7e7159b6db07b6358d59f18bbeddf5660e89b69b3a2bf924886cee5351eeae154401b01cc475dd7ce716ac10b0757c5afd8f5bc83f96ae612ccae7d02030100010000000000000000000000000000000000000000000000000000",
        "nonce": "0x16"
      },
      "additionalContracts": [],
      "isFixedGasLimit": false
    }
  ],
  "receipts": [
    {
      "transactionHash": "0xc7f903ba63d1896a57464af733c6ade11fe66ca1b11c7e8b96ec6a784c374165",
      "transactionIndex": "0x2",
      "blockHash": "0x887727594c729be3ed6f7dc8aa3d20b998a85ac28ef8fe193fa50f3fe868baf2",
      "blockNumber": "0x202c906",
      "from": "0xf9562D5EaC0ACFAe5274Aa30F7231d62818B593C",
      "to": "0xB2971419Bb6437856Eb9Ec8CA3e56958Af45Eee9",
      "cumulativeGasUsed": "0x80362e",
      "gasUsed": "0x697c1",
      "contractAddress": null,
      "logs": [
        {
          "address": "0xB2971419Bb6437856Eb9Ec8CA3e56958Af45Eee9",
          "topics": [
            "0x156278f14e9e7a4cae711d0a34c4509a150ed6f3c9365eb06f33bafe8ee520de",
            "0x0000000000000000000000000000000000000000000000000000000000000002"
          ],
          "data": "0x0000000000000000000000000000000000000000000000000000000066335665000000000000000000000000000000000000000000000000000000006634a7a900000000000000000000000000000000000000000000000000000000000000000000000000000000000000000000000000000000000000000000000000000000000000000000000000000000000000000000000000000000000000000000000000000000000000000000000000000000000000000000000000000000000000e00000000000000000000000000000000000000000000000000000000000000140000000000000000000000000000000000000000000000000000000000000002e516d53634758696b387941753568596364717641337a794d42624d726b52396e5942526d454d764275615a6e4164000000000000000000000000000000000000000000000000000000000000000000000000000000000000000000000000012630820122300d06092a864886f70d01010105000382010f003082010a0282010100a5ab902012b2cda81620ab60f95cd5dd4aa920ac019320d3a91927263f2c5d3cffbc97f07c432ce0b1e70a9ad1e20686b3a065ecf856c356aad312d33accea80927603ecd8edaf9bb0e0d9504bb78d44a29dc5ac949c1294ff4144411d722ebefe671e2151605ea3c8f50280165e0c0c5198771253fd638b18430855c91f292d6852688c1f0d395de53d0a91aa406de2678ed005a7c79e948204d5f6433c4fa663d7d59b8d61d2ddd148bb48cea457946feaaede9596d1caa34692456a55301d34c49443b7e7159b6db07b6358d59f18bbeddf5660e89b69b3a2bf924886cee5351eeae154401b01cc475dd7ce716ac10b0757c5afd8f5bc83f96ae612ccae7d02030100010000000000000000000000000000000000000000000000000000",
          "blockHash": "0x887727594c729be3ed6f7dc8aa3d20b998a85ac28ef8fe193fa50f3fe868baf2",
          "blockNumber": "0x202c906",
          "transactionHash": "0xc7f903ba63d1896a57464af733c6ade11fe66ca1b11c7e8b96ec6a784c374165",
          "transactionIndex": "0x2",
          "logIndex": "0x7d6",
          "removed": false
        }
      ],
      "status": "0x1",
      "logsBloom": "0x04000000000000000000000000000000000000000000000000000010000000000000000000000000000002000000000200000000000000000000000000000000000000004000000000000000000000000000000000000000000000000000000000000000000000000000000000000000000000000000002000000000000000000000000000000000000000000000000000000000000000000000000000000000000000000000000000000100000000000000000000000000000000000000000000000000000000000000000000000000000000000000000000000000000000000000000000000000000000000000000040000000008000000000000000000000",
      "type": "0x0",
      "effectiveGasPrice": "0xd09dc300"
    }
  ],
  "libraries": [],
  "pending": [],
  "returns": {},
  "timestamp": 1714640446,
  "chain": 100,
  "multi": false,
  "commit": "575b206"
}