{
  "transactions": [
    {
      "hash": "0x2ef746808f92745aa0607d973050c12bee190de7026f2f89ec34d0122d16c0a1",
      "transactionType": "CALL",
      "contractName": null,
      "contractAddress": "0xb2971419bb6437856eb9ec8ca3e56958af45eee9",
      "function": "createElection(uint256,uint256,uint8,uint8,uint8,string,bytes)",
      "arguments": [
        "1727187110",
        "1790259050",
        "0",
        "0",
        "0",
        "QmPmBUqnwTQuMu37ToKjiQEZAMCV4aELNRuyjC2VRssbRq",
        "0x30820122300d06092a864886f70d01010105000382010f003082010a0282010100a5ab902012b2cda81620ab60f95cd5dd4aa920ac019320d3a91927263f2c5d3cffbc97f07c432ce0b1e70a9ad1e20686b3a065ecf856c356aad312d33accea80927603ecd8edaf9bb0e0d9504bb78d44a29dc5ac949c1294ff4144411d722ebefe671e2151605ea3c8f50280165e0c0c5198771253fd638b18430855c91f292d6852688c1f0d395de53d0a91aa406de2678ed005a7c79e948204d5f6433c4fa663d7d59b8d61d2ddd148bb48cea457946feaaede9596d1caa34692456a55301d34c49443b7e7159b6db07b6358d59f18bbeddf5660e89b69b3a2bf924886cee5351eeae154401b01cc475dd7ce716ac10b0757c5afd8f5bc83f96ae612ccae7d0203010001"
      ],
      "transaction": {
        "from": "0xf9562d5eac0acfae5274aa30f7231d62818b593c",
        "to": "0xb2971419bb6437856eb9ec8ca3e56958af45eee9",
        "gas": "0x9a456",
        "value": "0x0",
        "input": "0xb12479830000000000000000000000000000000000000000000000000000000066f2c8a6000000000000000000000000000000000000000000000000000000006ab52f6a00000000000000000000000000000000000000000000000000000000000000000000000000000000000000000000000000000000000000000000000000000000000000000000000000000000000000000000000000000000000000000000000000000000000000000000000000000000000000000000000000000000000000e00000000000000000000000000000000000000000000000000000000000000140000000000000000000000000000000000000000000000000000000000000002e516d506d4255716e775451754d753337546f4b6a6951455a414d43563461454c4e5275796a433256527373625271000000000000000000000000000000000000000000000000000000000000000000000000000000000000000000000000012630820122300d06092a864886f70d01010105000382010f003082010a0282010100a5ab902012b2cda81620ab60f95cd5dd4aa920ac019320d3a91927263f2c5d3cffbc97f07c432ce0b1e70a9ad1e20686b3a065ecf856c356aad312d33accea80927603ecd8edaf9bb0e0d9504bb78d44a29dc5ac949c1294ff4144411d722ebefe671e2151605ea3c8f50280165e0c0c5198771253fd638b18430855c91f292d6852688c1f0d395de53d0a91aa406de2678ed005a7c79e948204d5f6433c4fa663d7d59b8d61d2ddd148bb48cea457946feaaede9596d1caa34692456a55301d34c49443b7e7159b6db07b6358d59f18bbeddf5660e89b69b3a2bf924886cee5351eeae154401b01cc475dd7ce716ac10b0757c5afd8f5bc83f96ae612ccae7d02030100010000000000000000000000000000000000000000000000000000",
        "nonce": "0x1f",
        "chainId": "0x64"
      },
      "additionalContracts": [],
      "isFixedGasLimit": false
    }
  ],
  "receipts": [
    {
      "status": "0x1",
      "cumulativeGasUsed": "0x12bf84",
      "logs": [
        {
          "address": "0xb2971419bb6437856eb9ec8ca3e56958af45eee9",
          "topics": [
            "0x156278f14e9e7a4cae711d0a34c4509a150ed6f3c9365eb06f33bafe8ee520de",
            "0x0000000000000000000000000000000000000000000000000000000000000006"
          ],
          "data": "0x0000000000000000000000000000000000000000000000000000000066f2c8a6000000000000000000000000000000000000000000000000000000006ab52f6a00000000000000000000000000000000000000000000000000000000000000000000000000000000000000000000000000000000000000000000000000000000000000000000000000000000000000000000000000000000000000000000000000000000000000000000000000000000000000000000000000000000000000e00000000000000000000000000000000000000000000000000000000000000140000000000000000000000000000000000000000000000000000000000000002e516d506d4255716e775451754d753337546f4b6a6951455a414d43563461454c4e5275796a433256527373625271000000000000000000000000000000000000000000000000000000000000000000000000000000000000000000000000012630820122300d06092a864886f70d01010105000382010f003082010a0282010100a5ab902012b2cda81620ab60f95cd5dd4aa920ac019320d3a91927263f2c5d3cffbc97f07c432ce0b1e70a9ad1e20686b3a065ecf856c356aad312d33accea80927603ecd8edaf9bb0e0d9504bb78d44a29dc5ac949c1294ff4144411d722ebefe671e2151605ea3c8f50280165e0c0c5198771253fd638b18430855c91f292d6852688c1f0d395de53d0a91aa406de2678ed005a7c79e948204d5f6433c4fa663d7d59b8d61d2ddd148bb48cea457946feaaede9596d1caa34692456a55301d34c49443b7e7159b6db07b6358d59f18bbeddf5660e89b69b3a2bf924886cee5351eeae154401b01cc475dd7ce716ac10b0757c5afd8f5bc83f96ae612ccae7d02030100010000000000000000000000000000000000000000000000000000",
          "blockHash": "0x2db2f5eb5e1d75d9667ab5a14c4e094b1e618b1f904008782e6904cf39fcf359",
          "blockNumber": "0x227da6a",
          "transactionHash": "0x2ef746808f92745aa0607d973050c12bee190de7026f2f89ec34d0122d16c0a1",
          "transactionIndex": "0x6",
          "logIndex": "0xf",
          "removed": false
        }
      ],
      "logsBloom": "0x00000000000000000000000000000000000000000000000000000010000000000000000000000000000002000000000200000000000400000000000000000000000000004000000000000000000000000000000000000000000000000000000000000000000000000000000000000000000000000000002000000000000000000000000400000000000000000000000000000000000000000000000000000000000000000000000000000000000000000000000000000000000000080000000000000000000000000000000000000000000000000000000000000000000000000000000000000000000000000000000040000000000000000000000000000000",
      "type": "0x2",
      "transactionHash": "0x2ef746808f92745aa0607d973050c12bee190de7026f2f89ec34d0122d16c0a1",
      "transactionIndex": "0x6",
      "blockHash": "0x2db2f5eb5e1d75d9667ab5a14c4e094b1e618b1f904008782e6904cf39fcf359",
      "blockNumber": "0x227da6a",
      "gasUsed": "0x697c1",
      "effectiveGasPrice": "0x556c83db",
      "from": "0xf9562d5eac0acfae5274aa30f7231d62818b593c",
      "to": "0xb2971419bb6437856eb9ec8ca3e56958af45eee9",
      "contractAddress": null
    }
  ],
  "libraries": [],
  "pending": [],
  "returns": {},
  "timestamp": 1727187068,
  "chain": 100,
  "commit": "72d571a"
}