{
  "transactions": [
    {
      "hash": "0x15aa9d8ce8ee2f1a7c0a04d8600b2c9bb2b79eb3e9248423e2150d0a2e0ef607",
      "transactionType": "CALL",
      "contractName": null,
      "contractAddress": "0xB2971419Bb6437856Eb9Ec8CA3e56958Af45Eee9",
      "function": "createElection(uint256,uint256,uint8,uint8,uint8,string,bytes)",
      "arguments": [
        "1714637170",
        "1745395510",
        "0",
        "0",
        "0",
        "\"Qmd9Z3hyqftexdRjJY1qvBbqKJwyTHukywSKcyM7wJhvHg\"",
        "0x30820122300d06092a864886f70d01010105000382010f003082010a0282010100a68ef1d1114eae8365a271d3b0325ef673df75b553b3b65bcbd3750f891660d5c623d56982109d359a68b2f5efdeecd8c91aebb1d5613bb6d5b0d46905e8b6cd7479340698805751d85d58f6610fbf0b84dcc06e4453fbd246c1b9d65afb91881be17c9efe62fc02cbc8f37429f78cf974e440cc2522b71af05fe80c03e02a5b1a47838c1dba14e9dcc1485208cd7c337945510727022ab01850141446fbe26a3b114270dbb74100356c658bfd707e91164b67fd62ccdaced064f902f38a45dd2d2ea729f8c7e1aa4078529fbe5c5b42e3a04910325cf8d7b2521824feeadff2fbd44cd6472e6cd008993ac6a26c004343cf137666aefb207bfef173d889c2550203010001"
      ],
      "transaction": {
        "type": "0x00",
        "from": "0xf9562d5eac0acfae5274aa30f7231d62818b593c",
        "to": "0xb2971419bb6437856eb9ec8ca3e56958af45eee9",
        "gas": "0x99434",
        "value": "0x0",
        "data": "0xb124798300000000000000000000000000000000000000000000000000000000663349720000000000000000000000000000000000000000000000000000000068089f3600000000000000000000000000000000000000000000000000000000000000000000000000000000000000000000000000000000000000000000000000000000000000000000000000000000000000000000000000000000000000000000000000000000000000000000000000000000000000000000000000000000000000e00000000000000000000000000000000000000000000000000000000000000140000000000000000000000000000000000000000000000000000000000000002e516d64395a336879716674657864526a4a593171764262714b4a77795448756b7977534b63794d37774a68764867000000000000000000000000000000000000000000000000000000000000000000000000000000000000000000000000012630820122300d06092a864886f70d01010105000382010f003082010a0282010100a68ef1d1114eae8365a271d3b0325ef673df75b553b3b65bcbd3750f891660d5c623d56982109d359a68b2f5efdeecd8c91aebb1d5613bb6d5b0d46905e8b6cd7479340698805751d85d58f6610fbf0b84dcc06e4453fbd246c1b9d65afb91881be17c9efe62fc02cbc8f37429f78cf974e440cc2522b71af05fe80c03e02a5b1a47838c1dba14e9dcc1485208cd7c337945510727022ab01850141446fbe26a3b114270dbb74100356c658bfd707e91164b67fd62ccdaced064f902f38a45dd2d2ea729f8c7e1aa4078529fbe5c5b42e3a04910325cf8d7b2521824feeadff2fbd44cd6472e6cd008993ac6a26c004343cf137666aefb207bfef173d889c25502030100010000000000000000000000000000000000000000000000000000",
        "nonce": "0x11"
      },
      "additionalContracts": [],
      "isFixedGasLimit": false
    }
  ],
  "receipts": [
    {
      "transactionHash": "0x15aa9d8ce8ee2f1a7c0a04d8600b2c9bb2b79eb3e9248423e2150d0a2e0ef607",
      "transactionIndex": "0x3",
      "blockHash": "0x3da4fe02c779f329014bb131e2c5af081e39c9abe1f92a944692c35f4d1305c1",
      "blockNumber": "0x202c682",
      "from": "0xf9562D5EaC0ACFAe5274Aa30F7231d62818B593C",
      "to": "0xB2971419Bb6437856Eb9Ec8CA3e56958Af45Eee9",
      "cumulativeGasUsed": "0x100476",
      "gasUsed": "0x68cb9",
      "contractAddress": null,
      "logs": [
        {
          "address": "0xB2971419Bb6437856Eb9Ec8CA3e56958Af45Eee9",
          "topics": [
            "0x156278f14e9e7a4cae711d0a34c4509a150ed6f3c9365eb06f33bafe8ee520de",
            "0x0000000000000000000000000000000000000000000000000000000000000000"
          ],
          "data": "0x00000000000000000000000000000000000000000000000000000000663349720000000000000000000000000000000000000000000000000000000068089f3600000000000000000000000000000000000000000000000000000000000000000000000000000000000000000000000000000000000000000000000000000000000000000000000000000000000000000000000000000000000000000000000000000000000000000000000000000000000000000000000000000000000000e00000000000000000000000000000000000000000000000000000000000000140000000000000000000000000000000000000000000000000000000000000002e516d64395a336879716674657864526a4a593171764262714b4a77795448756b7977534b63794d37774a68764867000000000000000000000000000000000000000000000000000000000000000000000000000000000000000000000000012630820122300d06092a864886f70d01010105000382010f003082010a0282010100a68ef1d1114eae8365a271d3b0325ef673df75b553b3b65bcbd3750f891660d5c623d56982109d359a68b2f5efdeecd8c91aebb1d5613bb6d5b0d46905e8b6cd7479340698805751d85d58f6610fbf0b84dcc06e4453fbd246c1b9d65afb91881be17c9efe62fc02cbc8f37429f78cf974e440cc2522b71af05fe80c03e02a5b1a47838c1dba14e9dcc1485208cd7c337945510727022ab01850141446fbe26a3b114270dbb74100356c658bfd707e91164b67fd62ccdaced064f902f38a45dd2d2ea729f8c7e1aa4078529fbe5c5b42e3a04910325cf8d7b2521824feeadff2fbd44cd6472e6cd008993ac6a26c004343cf137666aefb207bfef173d889c25502030100010000000000000000000000000000000000000000000000000000",
          "blockHash": "0x3da4fe02c779f329014bb131e2c5af081e39c9abe1f92a944692c35f4d1305c1",
          "blockNumber": "0x202c682",
          "transactionHash": "0x15aa9d8ce8ee2f1a7c0a04d8600b2c9bb2b79eb3e9248423e2150d0a2e0ef607",
          "transactionIndex": "0x3",
          "logIndex": "0x78",
          "removed": false
        }
      ],
      "status": "0x1",
      "logsBloom": "0x00000000000000000000000000000000000000000000000000000010000000000000000000000000000002000000000200000000000000000000000000000000000000004000000000000000000000000000000000000000000000000000000000000000020000000000000000000800000000000000002000000000000000000000000000000000000000000000000000000000000000000000000000000000000000000000000000000000000000000000000000000000000000000000000000000000000000000000000000000000000000000000000000000000000020000000000000000000000000000000000040000000000000000000000000000000",
      "type": "0x0",
      "effectiveGasPrice": "0xd09dc300"
    }
  ],
  "libraries": [],
  "pending": [],
  "returns": {},
  "timestamp": 1714637122,
  "chain": 100,
  "multi": false,
  "commit": "575b206"
}