{
  "transactions": [
    {
      "hash": "0x7036ee218f85bfd3710dbe0715f06113dd94a1fbcc3506a8b8aa928f28da434a",
      "transactionType": "CALL",
      "contractName": null,
      "contractAddress": "0xB2971419Bb6437856Eb9Ec8CA3e56958Af45Eee9",
      "function": "addAP((uint8,address,string,string))",
      "arguments": [
        "(0, 0x0104c532c336535ebDf8417Ea2D033f07Fe33019, \"OpenPetition AP\", \"https://www.openpetition.de/ap/\")"
      ],
      "transaction": {
        "type": "0x00",
        "from": "0xf9562d5eac0acfae5274aa30f7231d62818b593c",
        "to": "0xb2971419bb6437856eb9ec8ca3e56958af45eee9",
        "gas": "0x1fe53",
        "value": "0x0",
        "data": "0xad6e96f1000000000000000000000000000000000000000000000000000000000000002000000000000000000000000000000000000000000000000000000000000000000000000000000000000000000104c532c336535ebdf8417ea2d033f07fe33019000000000000000000000000000000000000000000000000000000000000008000000000000000000000000000000000000000000000000000000000000000c0000000000000000000000000000000000000000000000000000000000000000f4f70656e5065746974696f6e2041500000000000000000000000000000000000000000000000000000000000000000000000000000000000000000000000001f68747470733a2f2f7777772e6f70656e7065746974696f6e2e64652f61702f00",
        "nonce": "0xe"
      },
      "additionalContracts": [],
      "isFixedGasLimit": false
    },
    {
      "hash": "0x0e3c2b4f64e10e3729f37c1697b3b1d99a0a062554a17e239a78c3d425aa77aa",
      "transactionType": "CALL",
      "contractName": null,
      "contractAddress": "0xB2971419Bb6437856Eb9Ec8CA3e56958Af45Eee9",
      "function": "addRegister((uint8,address,string,string))",
      "arguments": [
        "(0, 0x20271F12D8359C672EE574b2f67282984F42a3F8, \"OpenVote Register\", \"https://register.opn.vote\")"
      ],
      "transaction": {
        "type": "0x00",
        "from": "0xf9562d5eac0acfae5274aa30f7231d62818b593c",
        "to": "0xb2971419bb6437856eb9ec8ca3e56958af45eee9",
        "gas": "0x1fc48",
        "value": "0x0",
        "data": "0x256fab2f0000000000000000000000000000000000000000000000000000000000000020000000000000000000000000000000000000000000000000000000000000000000000000000000000000000020271f12d8359c672ee574b2f67282984f42a3f8000000000000000000000000000000000000000000000000000000000000008000000000000000000000000000000000000000000000000000000000000000c000000000000000000000000000000000000000000000000000000000000000114f70656e566f7465205265676973746572000000000000000000000000000000000000000000000000000000000000000000000000000000000000000000001968747470733a2f2f72656769737465722e6f706e2e766f746500000000000000",
        "nonce": "0xf"
      },
      "additionalContracts": [],
      "isFixedGasLimit": false
    },
    {
      "hash": "0xf5dd1e174af2b5eb53af3ea2a650644d0274cdbff22ac9fcd3f73f0e7de4364f",
      "transactionType": "CALL",
      "contractName": null,
      "contractAddress": "0xB2971419Bb6437856Eb9Ec8CA3e56958Af45Eee9",
      "function": "addSVS((uint8,address,string,string))",
      "arguments": [
        "(0, 0x847507B935658Bdf58F166E0B54C662Bc3942a6f, \"OpenVote SVS\", \"https://svs.opn.vote\")"
      ],
      "transaction": {
        "type": "0x00",
        "from": "0xf9562d5eac0acfae5274aa30f7231d62818b593c",
        "to": "0xb2971419bb6437856eb9ec8ca3e56958af45eee9",
        "gas": "0x21bc3",
        "value": "0x0",
        "data": "0xca3ebbca00000000000000000000000000000000000000000000000000000000000000200000000000000000000000000000000000000000000000000000000000000000000000000000000000000000847507b935658bdf58f166e0b54c662bc3942a6f000000000000000000000000000000000000000000000000000000000000008000000000000000000000000000000000000000000000000000000000000000c0000000000000000000000000000000000000000000000000000000000000000c4f70656e566f7465205356530000000000000000000000000000000000000000000000000000000000000000000000000000000000000000000000000000001468747470733a2f2f7376732e6f706e2e766f7465000000000000000000000000",
        "nonce": "0x10"
      },
      "additionalContracts": [],
      "isFixedGasLimit": false
    }
  ],
  "receipts": [
    {
      "transactionHash": "0x7036ee218f85bfd3710dbe0715f06113dd94a1fbcc3506a8b8aa928f28da434a",
      "transactionIndex": "0x1",
      "blockHash": "0xfd39747f76f012b185c0d557b4c18a0d6dff96664eecb109498bd1734240f20c",
      "blockNumber": "0x202c600",
      "from": "0xf9562D5EaC0ACFAe5274Aa30F7231d62818B593C",
      "to": "0xB2971419Bb6437856Eb9Ec8CA3e56958Af45Eee9",
      "cumulativeGasUsed": "0x2713d",
      "gasUsed": "0x17178",
      "contractAddress": null,
      "logs": [],
      "status": "0x1",
      "logsBloom": "0x00000000000000000000000000000000000000000000000000000000000000000000000000000000000000000000000000000000000000000000000000000000000000000000000000000000000000000000000000000000000000000000000000000000000000000000000000000000000000000000000000000000000000000000000000000000000000000000000000000000000000000000000000000000000000000000000000000000000000000000000000000000000000000000000000000000000000000000000000000000000000000000000000000000000000000000000000000000000000000000000000000000000000000000000000000000",
      "type": "0x0",
      "effectiveGasPrice": "0xd09dc300"
    },
    {
      "transactionHash": "0x0e3c2b4f64e10e3729f37c1697b3b1d99a0a062554a17e239a78c3d425aa77aa",
      "transactionIndex": "0x2",
      "blockHash": "0xfd39747f76f012b185c0d557b4c18a0d6dff96664eecb109498bd1734240f20c",
      "blockNumber": "0x202c600",
      "from": "0xf9562D5EaC0ACFAe5274Aa30F7231d62818B593C",
      "to": "0xB2971419Bb6437856Eb9Ec8CA3e56958Af45Eee9",
      "cumulativeGasUsed": "0x3e13b",
      "gasUsed": "0x16ffe",
      "contractAddress": null,
      "logs": [],
      "status": "0x1",
      "logsBloom": "0x00000000000000000000000000000000000000000000000000000000000000000000000000000000000000000000000000000000000000000000000000000000000000000000000000000000000000000000000000000000000000000000000000000000000000000000000000000000000000000000000000000000000000000000000000000000000000000000000000000000000000000000000000000000000000000000000000000000000000000000000000000000000000000000000000000000000000000000000000000000000000000000000000000000000000000000000000000000000000000000000000000000000000000000000000000000",
      "type": "0x0",
      "effectiveGasPrice": "0xd09dc300"
    },
    {
      "transactionHash": "0xf5dd1e174af2b5eb53af3ea2a650644d0274cdbff22ac9fcd3f73f0e7de4364f",
      "transactionIndex": "0x3",
      "blockHash": "0xfd39747f76f012b185c0d557b4c18a0d6dff96664eecb109498bd1734240f20c",
      "blockNumber": "0x202c600",
      "from": "0xf9562D5EaC0ACFAe5274Aa30F7231d62818B593C",
      "to": "0xB2971419Bb6437856Eb9Ec8CA3e56958Af45Eee9",
      "cumulativeGasUsed": "0x5524d",
      "gasUsed": "0x17112",
      "contractAddress": null,
      "logs": [],
      "status": "0x1",
      "logsBloom": "0x00000000000000000000000000000000000000000000000000000000000000000000000000000000000000000000000000000000000000000000000000000000000000000000000000000000000000000000000000000000000000000000000000000000000000000000000000000000000000000000000000000000000000000000000000000000000000000000000000000000000000000000000000000000000000000000000000000000000000000000000000000000000000000000000000000000000000000000000000000000000000000000000000000000000000000000000000000000000000000000000000000000000000000000000000000000",
      "type": "0x0",
      "effectiveGasPrice": "0xd09dc300"
    }
  ],
  "libraries": [],
  "pending": [],
  "returns": {},
  "timestamp": 1714636464,
  "chain": 100,
  "multi": false,
  "commit": "575b206"
}