{
  "transactions": [
    {
      "hash": "0xb90bd9e04540b9e24cb741a83a8743c8754bac4e5534566f9e4e4064de0b67dc",
      "transactionType": "CALL",
      "contractName": null,
      "contractAddress": "0xd7f44bf41e2408e73d692624a8a754ee139f0458",
      "function": "createElection(uint256,uint256,uint8,uint8,uint8,string,bytes)",
      "arguments": [
        "1740030240",
        "1803102180",
        "0",
        "0",
        "0",
        "Qmbjosv2F1E5T5Xskv4EmASoc2fyyxzhHce48UnHXTHkfV",
        "0x30820122300d06092a864886f70d01010105000382010f003082010a0282010100a68ef1d1114eae8365a271d3b0325ef673df75b553b3b65bcbd3750f891660d5c623d56982109d359a68b2f5efdeecd8c91aebb1d5613bb6d5b0d46905e8b6cd7479340698805751d85d58f6610fbf0b84dcc06e4453fbd246c1b9d65afb91881be17c9efe62fc02cbc8f37429f78cf974e440cc2522b71af05fe80c03e02a5b1a47838c1dba14e9dcc1485208cd7c337945510727022ab01850141446fbe26a3b114270dbb74100356c658bfd707e91164b67fd62ccdaced064f902f38a45dd2d2ea729f8c7e1aa4078529fbe5c5b42e3a04910325cf8d7b2521824feeadff2fbd44cd6472e6cd008993ac6a26c004343cf137666aefb207bfef173d889c2550203010001"
      ],
      "transaction": {
        "from": "0xf9562d5eac0acfae5274aa30f7231d62818b593c",
        "to": "0xd7f44bf41e2408e73d692624a8a754ee139f0458",
        "gas": "0x9bf4d",
        "value": "0x0",
        "input": "0xb12479830000000000000000000000000000000000000000000000000000000067b6c120000000000000000000000000000000000000000000000000000000006b7927e400000000000000000000000000000000000000000000000000000000000000000000000000000000000000000000000000000000000000000000000000000000000000000000000000000000000000000000000000000000000000000000000000000000000000000000000000000000000000000000000000000000000000e00000000000000000000000000000000000000000000000000000000000000140000000000000000000000000000000000000000000000000000000000000002e516d626a6f73763246314535543558736b7634456d41536f6332667979787a684863653438556e485854486b6656000000000000000000000000000000000000000000000000000000000000000000000000000000000000000000000000012630820122300d06092a864886f70d01010105000382010f003082010a0282010100a68ef1d1114eae8365a271d3b0325ef673df75b553b3b65bcbd3750f891660d5c623d56982109d359a68b2f5efdeecd8c91aebb1d5613bb6d5b0d46905e8b6cd7479340698805751d85d58f6610fbf0b84dcc06e4453fbd246c1b9d65afb91881be17c9efe62fc02cbc8f37429f78cf974e440cc2522b71af05fe80c03e02a5b1a47838c1dba14e9dcc1485208cd7c337945510727022ab01850141446fbe26a3b114270dbb74100356c658bfd707e91164b67fd62ccdaced064f902f38a45dd2d2ea729f8c7e1aa4078529fbe5c5b42e3a04910325cf8d7b2521824feeadff2fbd44cd6472e6cd008993ac6a26c004343cf137666aefb207bfef173d889c25502030100010000000000000000000000000000000000000000000000000000",
        "nonce": "0x26",
        "chainId": "0x64"
      },
      "additionalContracts": [],
      "isFixedGasLimit": false
    }
  ],
  "receipts": [
    {
      "status": "0x1",
      "cumulativeGasUsed": "0x19b439",
      "logs": [
        {
          "address": "0xd7f44bf41e2408e73d692624a8a754ee139f0458",
          "topics": [
            "0x156278f14e9e7a4cae711d0a34c4509a150ed6f3c9365eb06f33bafe8ee520de",
            "0x0000000000000000000000000000000000000000000000000000000000000000"
          ],
          "data": "0x0000000000000000000000000000000000000000000000000000000067b6c120000000000000000000000000000000000000000000000000000000006b7927e400000000000000000000000000000000000000000000000000000000000000000000000000000000000000000000000000000000000000000000000000000000000000000000000000000000000000000000000000000000000000000000000000000000000000000000000000000000000000000000000000000000000000e00000000000000000000000000000000000000000000000000000000000000140000000000000000000000000000000000000000000000000000000000000002e516d626a6f73763246314535543558736b7634456d41536f6332667979787a684863653438556e485854486b6656000000000000000000000000000000000000000000000000000000000000000000000000000000000000000000000000012630820122300d06092a864886f70d01010105000382010f003082010a0282010100a68ef1d1114eae8365a271d3b0325ef673df75b553b3b65bcbd3750f891660d5c623d56982109d359a68b2f5efdeecd8c91aebb1d5613bb6d5b0d46905e8b6cd7479340698805751d85d58f6610fbf0b84dcc06e4453fbd246c1b9d65afb91881be17c9efe62fc02cbc8f37429f78cf974e440cc2522b71af05fe80c03e02a5b1a47838c1dba14e9dcc1485208cd7c337945510727022ab01850141446fbe26a3b114270dbb74100356c658bfd707e91164b67fd62ccdaced064f902f38a45dd2d2ea729f8c7e1aa4078529fbe5c5b42e3a04910325cf8d7b2521824feeadff2fbd44cd6472e6cd008993ac6a26c004343cf137666aefb207bfef173d889c25502030100010000000000000000000000000000000000000000000000000000",
          "blockHash": "0x247b47d803111f1e264a3643729f3d7670f29bc6e9351faea6e49f1252e2da47",
          "blockNumber": "0x24dcfe6",
          "transactionHash": "0xb90bd9e04540b9e24cb741a83a8743c8754bac4e5534566f9e4e4064de0b67dc",
          "transactionIndex": "0x3",
          "logIndex": "0x2c",
          "removed": false
        }
      ],
      "logsBloom": "0x00000000000000002000000000000000000000000000000000000010000000000000000000000000000002000000000000000000000000000000000000000000000000004000000000000000000000000000000000000000008000000000000000000000020000000000000000000800000000000000000000000000000000000000000000000000000000000000000000000000000000000000000000000000000000000000000000000000000000000000000000000000000000000000000000000000000000000000000000000000000000000000000000000000000020000000000000000000000000000000000000000000000000000000000000080000",
      "type": "0x0",
      "transactionHash": "0xb90bd9e04540b9e24cb741a83a8743c8754bac4e5534566f9e4e4064de0b67dc",
      "transactionIndex": "0x3",
      "blockHash": "0x247b47d803111f1e264a3643729f3d7670f29bc6e9351faea6e49f1252e2da47",
      "blockNumber": "0x24dcfe6",
      "gasUsed": "0x6aa31",
      "effectiveGasPrice": "0x3d24e7b7",
      "from": "0xf9562d5eac0acfae5274aa30f7231d62818b593c",
      "to": "0xd7f44bf41e2408e73d692624a8a754ee139f0458",
      "contractAddress": null
    }
  ],
  "libraries": [],
  "pending": [],
  "returns": {},
  "timestamp": 1740030197,
  "chain": 100,
  "commit": "a1c3e88"
}