{
  "transactions": [
    {
      "hash": "0xf3c38e633fb38730e962a569dc4566cb8e0f2d508849ba35702d84e7f7d3ce22",
      "transactionType": "CALL",
      "contractName": null,
      "contractAddress": "0xB2971419Bb6437856Eb9Ec8CA3e56958Af45Eee9",
      "function": "setElectionRegisterPublicKey(uint256,bytes,bytes)",
      "arguments": [
        "1",
        "0x00d4a8a98b01e65513c6b2d0e75fb63174994bf145104aec748f9e0a032a7b6fd07f7770ea13b82460684f4d4c9efcb39efa291f9ee5b5bb973ccffa61ff538ef4da1619ced6b88c64654e1b6f1cbccfef6de750c6eef4a0a99dd99e3fa6fa83793cf5c9d165897c621425eb276fd7415e77a59219ffae28c9cb2b6e37aef092c50e70b382c52e857da6ade1eba30a01301c57471a0c0ef6ef29d611b7e029a874617b31b355ab907c3731e5158cddb91dbde9da1f03757e4838351db1cd31c67981749e081bc584e694f15769e08ad9b62d97be3c3567b4730de607d16380f79101d35794c1eca9b3a7a573fac6299893306d3436f7da8405ea217410fa54ac01",
        "0x010001"
      ],
      "transaction": {
        "type": "0x00",
        "from": "0x20271f12d8359c672ee574b2f67282984f42a3f8",
        "to": "0xb2971419bb6437856eb9ec8ca3e56958af45eee9",
        "gas": "0x602f6",
        "value": "0x0",
        "data": "0xa4133feb0000000000000000000000000000000000000000000000000000000000000001000000000000000000000000000000000000000000000000000000000000006000000000000000000000000000000000000000000000000000000000000001a0000000000000000000000000000000000000000000000000000000000000010100d4a8a98b01e65513c6b2d0e75fb63174994bf145104aec748f9e0a032a7b6fd07f7770ea13b82460684f4d4c9efcb39efa291f9ee5b5bb973ccffa61ff538ef4da1619ced6b88c64654e1b6f1cbccfef6de750c6eef4a0a99dd99e3fa6fa83793cf5c9d165897c621425eb276fd7415e77a59219ffae28c9cb2b6e37aef092c50e70b382c52e857da6ade1eba30a01301c57471a0c0ef6ef29d611b7e029a874617b31b355ab907c3731e5158cddb91dbde9da1f03757e4838351db1cd31c67981749e081bc584e694f15769e08ad9b62d97be3c3567b4730de607d16380f79101d35794c1eca9b3a7a573fac6299893306d3436f7da8405ea217410fa54ac010000000000000000000000000000000000000000000000000000000000000000000000000000000000000000000000000000000000000000000000000000030100010000000000000000000000000000000000000000000000000000000000",
        "nonce": "0x3"
      },
      "additionalContracts": [],
      "isFixedGasLimit": false
    }
  ],
  "receipts": [
    {
      "transactionHash": "0xf3c38e633fb38730e962a569dc4566cb8e0f2d508849ba35702d84e7f7d3ce22",
      "transactionIndex": "0x2",
      "blockHash": "0xa3f65d906191495de3decafb7109e17d7f55b3e7a56cb59f1a251cd30955a8ae",
      "blockNumber": "0x202c8e9",
      "from": "0x20271F12D8359C672EE574b2f67282984F42a3F8",
      "to": "0xB2971419Bb6437856Eb9Ec8CA3e56958Af45Eee9",
      "cumulativeGasUsed": "0x12195c",
      "gasUsed": "0x45a2f",
      "contractAddress": null,
      "logs": [
        {
          "address": "0xB2971419Bb6437856Eb9Ec8CA3e56958Af45Eee9",
          "topics": [
            "0xd564ae0c19e7c4abf1a013f9e736abe2695aa574026614ed29237392b84fa02f",
            "0x0000000000000000000000000000000000000000000000000000000000000001"
          ],
          "data": "0x00000000000000000000000000000000000000000000000000000000000000400000000000000000000000000000000000000000000000000000000000000180000000000000000000000000000000000000000000000000000000000000010100d4a8a98b01e65513c6b2d0e75fb63174994bf145104aec748f9e0a032a7b6fd07f7770ea13b82460684f4d4c9efcb39efa291f9ee5b5bb973ccffa61ff538ef4da1619ced6b88c64654e1b6f1cbccfef6de750c6eef4a0a99dd99e3fa6fa83793cf5c9d165897c621425eb276fd7415e77a59219ffae28c9cb2b6e37aef092c50e70b382c52e857da6ade1eba30a01301c57471a0c0ef6ef29d611b7e029a874617b31b355ab907c3731e5158cddb91dbde9da1f03757e4838351db1cd31c67981749e081bc584e694f15769e08ad9b62d97be3c3567b4730de607d16380f79101d35794c1eca9b3a7a573fac6299893306d3436f7da8405ea217410fa54ac010000000000000000000000000000000000000000000000000000000000000000000000000000000000000000000000000000000000000000000000000000030100010000000000000000000000000000000000000000000000000000000000",
          "blockHash": "0xa3f65d906191495de3decafb7109e17d7f55b3e7a56cb59f1a251cd30955a8ae",
          "blockNumber": "0x202c8e9",
          "transactionHash": "0xf3c38e633fb38730e962a569dc4566cb8e0f2d508849ba35702d84e7f7d3ce22",
          "transactionIndex": "0x2",
          "logIndex": "0x6",
          "removed": false
        }
      ],
      "status": "0x1",
      "logsBloom": "0x00000000000000000000000000000000000000000000000000000000000000000000000000000000000000000000000200000000000000000000000000040000000000000000000000000000000000000000000000040000200000000000000000000000000000000000000000000000000000000000002000000000000000000000000000000000000000000000000000000000000000000000000000000000000000000000000000000000000000000000000000000000000000000000000000002000000000000000000000000000000000000000000000000000000040000000000000000000000000000000000040000000001000000000000000000000",
      "type": "0x0",
      "effectiveGasPrice": "0xd09dc300"
    }
  ],
  "libraries": [],
  "pending": [],
  "returns": {},
  "timestamp": 1714640296,
  "chain": 100,
  "multi": false,
  "commit": "575b206"
}