{
  "transactions": [
    {
      "hash": "0x94749bea8fd53f51b996fcb65dffeb577832071fedf07d89b79009674acc6485",
      "transactionType": "CALL",
      "contractName": null,
      "contractAddress": "0xB2971419Bb6437856Eb9Ec8CA3e56958Af45Eee9",
      "function": "setElectionRegisterPublicKey(uint256,bytes,bytes)",
      "arguments": [
        "0",
        "0x00c8d18372ac54d251f658c2f639d9ae89b54f9808702ebbe18e41443520bd912e100bcb8fdf9911f0c6a696f9df10adb678746ba1ea3bb7d23b9f0d482b54273fdad99813935cc36da2229289def730a8423e02d91a9bc201e012046c409b9129a5edf69573e6e1e3c37767d12827922f64c79e20b96efe2c81136d336ce538f6d017c48f3d897fd33fba9ae6eb3394859e9b194a61099e07e7f6c67ab1abb42a3778a76ddf8fb15e37ea3f42f260d8ad50831b05fd5a4b5f6fefe57b29e2d259f3135bd4e0e18f86086dfdeab622c2a5d5cc16dbb38c56f6ff8e1d77944d17f3012be36b5cd1ffccd9ce4dd65c4c1a9bee3b59e3f191a50435d3cfc834246f23",
        "0x010001"
      ],
      "transaction": {
        "type": "0x00",
        "from": "0x20271f12d8359c672ee574b2f67282984f42a3f8",
        "to": "0xb2971419bb6437856eb9ec8ca3e56958af45eee9",
        "gas": "0x65d6c",
        "value": "0x0",
        "data": "0xa4133feb0000000000000000000000000000000000000000000000000000000000000000000000000000000000000000000000000000000000000000000000000000006000000000000000000000000000000000000000000000000000000000000001a0000000000000000000000000000000000000000000000000000000000000010100c8d18372ac54d251f658c2f639d9ae89b54f9808702ebbe18e41443520bd912e100bcb8fdf9911f0c6a696f9df10adb678746ba1ea3bb7d23b9f0d482b54273fdad99813935cc36da2229289def730a8423e02d91a9bc201e012046c409b9129a5edf69573e6e1e3c37767d12827922f64c79e20b96efe2c81136d336ce538f6d017c48f3d897fd33fba9ae6eb3394859e9b194a61099e07e7f6c67ab1abb42a3778a76ddf8fb15e37ea3f42f260d8ad50831b05fd5a4b5f6fefe57b29e2d259f3135bd4e0e18f86086dfdeab622c2a5d5cc16dbb38c56f6ff8e1d77944d17f3012be36b5cd1ffccd9ce4dd65c4c1a9bee3b59e3f191a50435d3cfc834246f230000000000000000000000000000000000000000000000000000000000000000000000000000000000000000000000000000000000000000000000000000030100010000000000000000000000000000000000000000000000000000000000",
        "nonce": "0x2"
      },
      "additionalContracts": [],
      "isFixedGasLimit": false
    }
  ],
  "receipts": [
    {
      "transactionHash": "0x94749bea8fd53f51b996fcb65dffeb577832071fedf07d89b79009674acc6485",
      "transactionIndex": "0x1",
      "blockHash": "0x729f55e3c711b4fb9070808317de28380165a72296e1da09215a69a8f950fef7",
      "blockNumber": "0x202c689",
      "from": "0x20271F12D8359C672EE574b2f67282984F42a3F8",
      "to": "0xB2971419Bb6437856Eb9Ec8CA3e56958Af45Eee9",
      "cumulativeGasUsed": "0x50da5c",
      "gasUsed": "0x45a23",
      "contractAddress": null,
      "logs": [
        {
          "address": "0xB2971419Bb6437856Eb9Ec8CA3e56958Af45Eee9",
          "topics": [
            "0xd564ae0c19e7c4abf1a013f9e736abe2695aa574026614ed29237392b84fa02f",
            "0x0000000000000000000000000000000000000000000000000000000000000000"
          ],
          "data": "0x00000000000000000000000000000000000000000000000000000000000000400000000000000000000000000000000000000000000000000000000000000180000000000000000000000000000000000000000000000000000000000000010100c8d18372ac54d251f658c2f639d9ae89b54f9808702ebbe18e41443520bd912e100bcb8fdf9911f0c6a696f9df10adb678746ba1ea3bb7d23b9f0d482b54273fdad99813935cc36da2229289def730a8423e02d91a9bc201e012046c409b9129a5edf69573e6e1e3c37767d12827922f64c79e20b96efe2c81136d336ce538f6d017c48f3d897fd33fba9ae6eb3394859e9b194a61099e07e7f6c67ab1abb42a3778a76ddf8fb15e37ea3f42f260d8ad50831b05fd5a4b5f6fefe57b29e2d259f3135bd4e0e18f86086dfdeab622c2a5d5cc16dbb38c56f6ff8e1d77944d17f3012be36b5cd1ffccd9ce4dd65c4c1a9bee3b59e3f191a50435d3cfc834246f230000000000000000000000000000000000000000000000000000000000000000000000000000000000000000000000000000000000000000000000000000030100010000000000000000000000000000000000000000000000000000000000",
          "blockHash": "0x729f55e3c711b4fb9070808317de28380165a72296e1da09215a69a8f950fef7",
          "blockNumber": "0x202c689",
          "transactionHash": "0x94749bea8fd53f51b996fcb65dffeb577832071fedf07d89b79009674acc6485",
          "transactionIndex": "0x1",
          "logIndex": "0x42c",
          "removed": false
        }
      ],
      "status": "0x1",
      "logsBloom": "0x00000000000000000000000000000000000000000000000000000000000000000000000000000000000000000000000200000000000000000000000000000000000000000000000000000000000000000000000000000000200000000000000000000000020000000000000000000800000000000000002000000000000000000000000000000000000000000000000000000000000000000000000000000000000000000000000000000000000000000000000000000000000000000000000000002000000000000000000000000000000000000000000000000000000020000000000000000000000000000000000040000000001000000000000000000000",
      "type": "0x0",
      "effectiveGasPrice": "0xd09dc300"
    }
  ],
  "libraries": [],
  "pending": [],
  "returns": {},
  "timestamp": 1714637164,
  "chain": 100,
  "multi": false,
  "commit": "575b206"
}