{
  "transactions": [
    {
      "hash": "0x3bc4237f5f89ea37d7203294f2fe79b3ce96b93f7c6e3d7fb963ddea1462ff17",
      "transactionType": "CALL",
      "contractName": null,
      "contractAddress": "0xb2971419bb6437856eb9ec8ca3e56958af45eee9",
      "function": "setElectionRegisterPublicKey(uint256,bytes,bytes)",
      "arguments": [
        "6",
        "0x00d4a8a98b01e65513c6b2d0e75fb63174994bf145104aec748f9e0a032a7b6fd07f7770ea13b82460684f4d4c9efcb39efa291f9ee5b5bb973ccffa61ff538ef4da1619ced6b88c64654e1b6f1cbccfef6de750c6eef4a0a99dd99e3fa6fa83793cf5c9d165897c621425eb276fd7415e77a59219ffae28c9cb2b6e37aef092c50e70b382c52e857da6ade1eba30a01301c57471a0c0ef6ef29d611b7e029a874617b31b355ab907c3731e5158cddb91dbde9da1f03757e4838351db1cd31c67981749e081bc584e694f15769e08ad9b62d97be3c3567b4730de607d16380f79101d35794c1eca9b3a7a573fac6299893306d3436f7da8405ea217410fa54ac01",
        "0x010001"
      ],
      "transaction": {
        "from": "0x20271f12d8359c672ee574b2f67282984f42a3f8",
        "to": "0xb2971419bb6437856eb9ec8ca3e56958af45eee9",
        "gas": "0x602f6",
        "value": "0x0",
        "input": "0xa4133feb0000000000000000000000000000000000000000000000000000000000000006000000000000000000000000000000000000000000000000000000000000006000000000000000000000000000000000000000000000000000000000000001a0000000000000000000000000000000000000000000000000000000000000010100d4a8a98b01e65513c6b2d0e75fb63174994bf145104aec748f9e0a032a7b6fd07f7770ea13b82460684f4d4c9efcb39efa291f9ee5b5bb973ccffa61ff538ef4da1619ced6b88c64654e1b6f1cbccfef6de750c6eef4a0a99dd99e3fa6fa83793cf5c9d165897c621425eb276fd7415e77a59219ffae28c9cb2b6e37aef092c50e70b382c52e857da6ade1eba30a01301c57471a0c0ef6ef29d611b7e029a874617b31b355ab907c3731e5158cddb91dbde9da1f03757e4838351db1cd31c67981749e081bc584e694f15769e08ad9b62d97be3c3567b4730de607d16380f79101d35794c1eca9b3a7a573fac6299893306d3436f7da8405ea217410fa54ac010000000000000000000000000000000000000000000000000000000000000000000000000000000000000000000000000000000000000000000000000000030100010000000000000000000000000000000000000000000000000000000000",
        "nonce": "0x7",
        "chainId": "0x64"
      },
      "additionalContracts": [],
      "isFixedGasLimit": false
    }
  ],
  "receipts": [
    {
      "status": "0x1",
      "cumulativeGasUsed": "0x5c0f4",
      "logs": [
        {
          "address": "0xb2971419bb6437856eb9ec8ca3e56958af45eee9",
          "topics": [
            "0xd564ae0c19e7c4abf1a013f9e736abe2695aa574026614ed29237392b84fa02f",
            "0x0000000000000000000000000000000000000000000000000000000000000006"
          ],
          "data": "0x00000000000000000000000000000000000000000000000000000000000000400000000000000000000000000000000000000000000000000000000000000180000000000000000000000000000000000000000000000000000000000000010100d4a8a98b01e65513c6b2d0e75fb63174994bf145104aec748f9e0a032a7b6fd07f7770ea13b82460684f4d4c9efcb39efa291f9ee5b5bb973ccffa61ff538ef4da1619ced6b88c64654e1b6f1cbccfef6de750c6eef4a0a99dd99e3fa6fa83793cf5c9d165897c621425eb276fd7415e77a59219ffae28c9cb2b6e37aef092c50e70b382c52e857da6ade1eba30a01301c57471a0c0ef6ef29d611b7e029a874617b31b355ab907c3731e5158cddb91dbde9da1f03757e4838351db1cd31c67981749e081bc584e694f15769e08ad9b62d97be3c3567b4730de607d16380f79101d35794c1eca9b3a7a573fac6299893306d3436f7da8405ea217410fa54ac010000000000000000000000000000000000000000000000000000000000000000000000000000000000000000000000000000000000000000000000000000030100010000000000000000000000000000000000000000000000000000000000",
          "blockHash": "0x1c2b77793f5b21104885c0ca7729dd03e21d80749246c3fdaa2f294dd92ec24d",
          "blockNumber": "0x227da8a",
          "transactionHash": "0x3bc4237f5f89ea37d7203294f2fe79b3ce96b93f7c6e3d7fb963ddea1462ff17",
          "transactionIndex": "0x3",
          "logIndex": "0x2",
          "removed": false
        }
      ],
      "logsBloom": "0x00000000000000000000000000000000000000000000000000000000000000000000000000000000000000000000000200000000000400000000000000000000000000000000000000000000000000000000000000000000200000000000000000000000000000000000000000000000000000000000002000000000000000000000000400000000000000000000000000000000000000000000000000000000000000000000000000000000000000000000000000000000000000080000000000002000000000000000000000000000000000000000000000000000000000000000000000000000000000000000000040000000001000000000000000000000",
      "type": "0x2",
      "transactionHash": "0x3bc4237f5f89ea37d7203294f2fe79b3ce96b93f7c6e3d7fb963ddea1462ff17",
      "transactionIndex": "0x3",
      "blockHash": "0x1c2b77793f5b21104885c0ca7729dd03e21d80749246c3fdaa2f294dd92ec24d",
      "blockNumber": "0x227da8a",
      "gasUsed": "0x45a2f",
      "effectiveGasPrice": "0x59682f02",
      "from": "0x20271f12d8359c672ee574b2f67282984f42a3f8",
      "to": "0xb2971419bb6437856eb9ec8ca3e56958af45eee9",
      "contractAddress": null
    }
  ],
  "libraries": [],
  "pending": [],
  "returns": {},
  "timestamp": 1727187242,
  "chain": 100,
  "commit": "72d571a"
}