{
  "transactions": [
    {
      "hash": "0x3fa6880b4f548593d4133fab1310a54e6a7b8396ab2c024ec4f6633aaeae7fd4",
      "transactionType": "CALL",
      "contractName": null,
      "contractAddress": "0xc2958f59c2f333b1ad462c7a3969da1e0b662459",
      "function": "startElection(uint256)",
      "arguments": [
        "0"
      ],
      "transaction": {
        "from": "0xf9562d5eac0acfae5274aa30f7231d62818b593c",
        "to": "0xc2958f59c2f333b1ad462c7a3969da1e0b662459",
        "gas": "0xe1c6",
        "value": "0x0",
        "input": "0x6d32dc4b0000000000000000000000000000000000000000000000000000000000000000",
        "nonce": "0x39",
        "chainId": "0x64"
      },
      "additionalContracts": [],
      "isFixedGasLimit": false
    }
  ],
  "receipts": [
    {
      "status": "0x1",
      "cumulativeGasUsed": "0x407fd5",
      "logs": [
        {
          "address": "0xc2958f59c2f333b1ad462c7a3969da1e0b662459",
          "topics": [
            "0x12b37df6c3e196249962cd4347a3d9d9e6444d63d7f1bd286129f93ca919fb3d",
            "0x0000000000000000000000000000000000000000000000000000000000000000"
          ],
          "data": "0x00000000000000000000000000000000000000000000000000000000000000010000000000000000000000000000000000000000000000000000000000000001",
          "blockHash": "0xecf4e8092a2da7b6cc846a60e61bd98f6505af4b3009207fcb7195995ef6ed5b",
          "blockNumber": "0x262edad",
          "transactionHash": "0x3fa6880b4f548593d4133fab1310a54e6a7b8396ab2c024ec4f6633aaeae7fd4",
          "transactionIndex": "0xc",
          "logIndex": "0x18",
          "removed": false
        }
      ],
      "logsBloom": "0x00000000000000000000000000000000000000000000000000000000000000400000000000000000000000000000000000000000000000000000000000000000000000000000000000000000000000000000000000000000000000000000000000000000020002000000000002000800000000000000000000000000000000000000000000000000000000000000000000000000000000000000000000000000000000000000000000000100000000000000000000000000000000000000000000000000000000000000001000000000000000000000000000000000000020000000000000000000000000000000000080000000000000000000000000000000",
      "type": "0x2",
      "transactionHash": "0x3fa6880b4f548593d4133fab1310a54e6a7b8396ab2c024ec4f6633aaeae7fd4",
      "transactionIndex": "0xc",
      "blockHash": "0xecf4e8092a2da7b6cc846a60e61bd98f6505af4b3009207fcb7195995ef6ed5b",
      "blockNumber": "0x262edad",
      "gasUsed": "0xa375",
      "effectiveGasPrice": "0x1e",
      "from": "0xf9562d5eac0acfae5274aa30f7231d62818b593c",
      "to": "0xc2958f59c2f333b1ad462c7a3969da1e0b662459",
      "contractAddress": null
    }
  ],
  "libraries": [],
  "pending": [],
  "returns": {},
  "timestamp": 1747121967,
  "chain": 100,
  "commit": "01e6994"
}