{
  "transactions": [
    {
      "hash": "0x30fbe9f0cf7a8b19372137e99c57f3774e7dbf994b1b901ca2b9d74795769e9b",
      "transactionType": "CALL",
      "contractName": null,
      "contractAddress": "0xc2958f59c2f333b1ad462c7a3969da1e0b662459",
      "function": "startElection(uint256)",
      "arguments": [
        "5"
      ],
      "transaction": {
        "from": "0xf9562d5eac0acfae5274aa30f7231d62818b593c",
        "to": "0xc2958f59c2f333b1ad462c7a3969da1e0b662459",
        "gas": "0x14d34",
        "value": "0x0",
        "input": "0x6d32dc4b0000000000000000000000000000000000000000000000000000000000000005",
        "nonce": "0x47",
        "chainId": "0x64"
      },
      "additionalContracts": [],
      "isFixedGasLimit": false
    }
  ],
  "receipts": [
    {
      "status": "0x1",
      "cumulativeGasUsed": "0x27c472",
      "logs": [
        {
          "address": "0xc2958f59c2f333b1ad462c7a3969da1e0b662459",
          "topics": [
            "0x12b37df6c3e196249962cd4347a3d9d9e6444d63d7f1bd286129f93ca919fb3d",
            "0x0000000000000000000000000000000000000000000000000000000000000005"
          ],
          "data": "0x00000000000000000000000000000000000000000000000000000000000000000000000000000000000000000000000000000000000000000000000000000001",
          "blockHash": "0x7b6b2fb097e0ac366b93e5ebefdc8320876a2ebc02bb3efb1a455442e4eead89",
          "blockNumber": "0x26b9fa4",
          "transactionHash": "0x30fbe9f0cf7a8b19372137e99c57f3774e7dbf994b1b901ca2b9d74795769e9b",
          "transactionIndex": "0xf",
          "logIndex": "0x20",
          "removed": false
        }
      ],
      "logsBloom": "0x00000000000000000000000000000000000000000000000000000000000000400000000000000000000000000000000000000000000000000000000000000000000010000000000000000000000000000000000000000000000000000000000000000000000002000000000002000000000000000000000000000000000000000000000000000000000000000000001000000800000000000000000000000000000000000000000000000100000000000000000000000000000000000000000000000000000000000000001000000000000000000000000000000000000000000000000000000000000000000000000080000000000000000000000000000000",
      "type": "0x2",
      "transactionHash": "0x30fbe9f0cf7a8b19372137e99c57f3774e7dbf994b1b901ca2b9d74795769e9b",
      "transactionIndex": "0xf",
      "blockHash": "0x7b6b2fb097e0ac366b93e5ebefdc8320876a2ebc02bb3efb1a455442e4eead89",
      "blockNumber": "0x26b9fa4",
      "gasUsed": "0xf13d",
      "effectiveGasPrice": "0x4f",
      "from": "0xf9562d5eac0acfae5274aa30f7231d62818b593c",
      "to": "0xc2958f59c2f333b1ad462c7a3969da1e0b662459",
      "contractAddress": null
    }
  ],
  "libraries": [],
  "pending": [],
  "returns": {},
  "timestamp": 1750044455,
  "chain": 100,
  "commit": "49077eb"
}