{
  "transactions": [
    {
      "hash": "0x953e364ff5cc2b762facfc9519098432e49ce111df4248bbeb8b8f36882ef410",
      "transactionType": "CALL",
      "contractName": null,
      "contractAddress": "0xc2958f59c2f333b1ad462c7a3969da1e0b662459",
      "function": "startElection(uint256)",
      "arguments": [
        "1"
      ],
      "transaction": {
        "from": "0xf9562d5eac0acfae5274aa30f7231d62818b593c",
        "to": "0xc2958f59c2f333b1ad462c7a3969da1e0b662459",
        "gas": "0x14d34",
        "value": "0x0",
        "input": "0x6d32dc4b0000000000000000000000000000000000000000000000000000000000000001",
        "nonce": "0x3b",
        "chainId": "0x64"
      },
      "additionalContracts": [],
      "isFixedGasLimit": false
    }
  ],
  "receipts": [
    {
      "status": "0x1",
      "cumulativeGasUsed": "0x2d1c8e",
      "logs": [
        {
          "address": "0xc2958f59c2f333b1ad462c7a3969da1e0b662459",
          "topics": [
            "0x12b37df6c3e196249962cd4347a3d9d9e6444d63d7f1bd286129f93ca919fb3d",
            "0x0000000000000000000000000000000000000000000000000000000000000001"
          ],
          "data": "0x00000000000000000000000000000000000000000000000000000000000000000000000000000000000000000000000000000000000000000000000000000001",
          "blockHash": "0xa25c1b8675eac463cf9525bb82d7e000e9cb6bb949f61e9cc0b9eb6bce4562a1",
          "blockNumber": "0x262edf9",
          "transactionHash": "0x953e364ff5cc2b762facfc9519098432e49ce111df4248bbeb8b8f36882ef410",
          "transactionIndex": "0x3",
          "logIndex": "0x0",
          "removed": false
        }
      ],
      "logsBloom": "0x00000000000000000000000000000000000000000000000000000000000000400000000000000000000000000000000000000000000000000000000000040000000000000000000000000000000000000000000000040000000000000000000000000000000002000000000002000000000000000000000000000000000000000000000000000000000000000000000000000000000000000000000000000000000000000000000000000100000000000000000000000000000000000000000000000000000000000000001000000000000000000000000000000000000040000000000000000000000000000000000080000000000000000000000000000000",
      "type": "0x2",
      "transactionHash": "0x953e364ff5cc2b762facfc9519098432e49ce111df4248bbeb8b8f36882ef410",
      "transactionIndex": "0x3",
      "blockHash": "0xa25c1b8675eac463cf9525bb82d7e000e9cb6bb949f61e9cc0b9eb6bce4562a1",
      "blockNumber": "0x262edf9",
      "gasUsed": "0xf13d",
      "effectiveGasPrice": "0x2d",
      "from": "0xf9562d5eac0acfae5274aa30f7231d62818b593c",
      "to": "0xc2958f59c2f333b1ad462c7a3969da1e0b662459",
      "contractAddress": null
    }
  ],
  "libraries": [],
  "pending": [],
  "returns": {},
  "timestamp": 1747122361,
  "chain": 100,
  "commit": "01e6994"
}