{
  "transactions": [
    {
      "hash": "0xb3761f59245fc302efd638a64cf8b6fd52ef8ff101d7b07f90af86d09a6c2a49",
      "transactionType": "CALL",
      "contractName": null,
      "contractAddress": "0xc2958f59c2f333b1ad462c7a3969da1e0b662459",
      "function": "startElection(uint256)",
      "arguments": [
        "4"
      ],
      "transaction": {
        "from": "0xf9562d5eac0acfae5274aa30f7231d62818b593c",
        "to": "0xc2958f59c2f333b1ad462c7a3969da1e0b662459",
        "gas": "0x14d34",
        "value": "0x0",
        "input": "0x6d32dc4b0000000000000000000000000000000000000000000000000000000000000004",
        "nonce": "0x46",
        "chainId": "0x64"
      },
      "additionalContracts": [],
      "isFixedGasLimit": false
    }
  ],
  "receipts": [
    {
      "status": "0x1",
      "cumulativeGasUsed": "0x7d082a",
      "logs": [
        {
          "address": "0xc2958f59c2f333b1ad462c7a3969da1e0b662459",
          "topics": [
            "0x12b37df6c3e196249962cd4347a3d9d9e6444d63d7f1bd286129f93ca919fb3d",
            "0x0000000000000000000000000000000000000000000000000000000000000004"
          ],
          "data": "0x00000000000000000000000000000000000000000000000000000000000000000000000000000000000000000000000000000000000000000000000000000001",
          "blockHash": "0x29de0a440ca89efb6dbe91b84c421b3f61345b3dcfc66fa023236c7a706812ae",
          "blockNumber": "0x26b9fa0",
          "transactionHash": "0xb3761f59245fc302efd638a64cf8b6fd52ef8ff101d7b07f90af86d09a6c2a49",
          "transactionIndex": "0x17",
          "logIndex": "0x88",
          "removed": false
        }
      ],
      "logsBloom": "0x00000000000000000000000000000000000000000000000000000000000000400000000000000000000000000000000000000000000000000000000000000000000000000000000000000000000000000000000000000000000000000000000008000000000002000000000002000000000000000000000000000000000000000000000000000000000000000000000000000000000000000000000000000000000000000000000000000100000000000000000000000000002000000000000000000000000000000000001000000000000000008000000000000000000000000000000000000000000000000000000080000000000000000000000000000000",
      "type": "0x2",
      "transactionHash": "0xb3761f59245fc302efd638a64cf8b6fd52ef8ff101d7b07f90af86d09a6c2a49",
      "transactionIndex": "0x17",
      "blockHash": "0x29de0a440ca89efb6dbe91b84c421b3f61345b3dcfc66fa023236c7a706812ae",
      "blockNumber": "0x26b9fa0",
      "gasUsed": "0xf13d",
      "effectiveGasPrice": "0x4f",
      "from": "0xf9562d5eac0acfae5274aa30f7231d62818b593c",
      "to": "0xc2958f59c2f333b1ad462c7a3969da1e0b662459",
      "contractAddress": null
    }
  ],
  "libraries": [],
  "pending": [],
  "returns": {},
  "timestamp": 1750044437,
  "chain": 100,
  "commit": "49077eb"
}