{
  "transactions": [
    {
      "hash": "0xc7c97242725aa756c3004e29415eb1ea7ee30f4ef4c5bb9a5de6345988797bd1",
      "transactionType": "CALL",
      "contractName": null,
      "contractAddress": "0xc2958f59c2f333b1ad462c7a3969da1e0b662459",
      "function": "startElection(uint256)",
      "arguments": [
        "1"
      ],
      "transaction": {
        "from": "0xf9562d5eac0acfae5274aa30f7231d62818b593c",
        "to": "0xc2958f59c2f333b1ad462c7a3969da1e0b662459",
        "gas": "0xef1f",
        "value": "0x0",
        "input": "0x6d32dc4b0000000000000000000000000000000000000000000000000000000000000001",
        "nonce": "0x3f",
        "chainId": "0x64"
      },
      "additionalContracts": [],
      "isFixedGasLimit": false
    }
  ],
  "receipts": [
    {
      "status": "0x1",
      "cumulativeGasUsed": "0x7b0144",
      "logs": [
        {
          "address": "0xc2958f59c2f333b1ad462c7a3969da1e0b662459",
          "topics": [
            "0x12b37df6c3e196249962cd4347a3d9d9e6444d63d7f1bd286129f93ca919fb3d",
            "0x0000000000000000000000000000000000000000000000000000000000000001"
          ],
          "data": "0x00000000000000000000000000000000000000000000000000000000000000010000000000000000000000000000000000000000000000000000000000000001",
          "blockHash": "0x1ae3182cc85038409346693d41a8a61aad08bc833a17da576b245e3cc78d3495",
          "blockNumber": "0x268ca62",
          "transactionHash": "0xc7c97242725aa756c3004e29415eb1ea7ee30f4ef4c5bb9a5de6345988797bd1",
          "transactionIndex": "0xe",
          "logIndex": "0x65",
          "removed": false
        }
      ],
      "logsBloom": "0x00000000000000000000000000000000000000000000000000000000000000400000000000000000000000000000000000000000000000000000000000040000000000000000000000000000000000000000000000040000000000000000000000000000000002000000000002000000000000000000000000000000000000000000000000000000000000000000000000000000000000000000000000000000000000000000000000000100000000000000000000000000000000000000000000000000000000000000001000000000000000000000000000000000000040000000000000000000000000000000000080000000000000000000000000000000",
      "type": "0x2",
      "transactionHash": "0xc7c97242725aa756c3004e29415eb1ea7ee30f4ef4c5bb9a5de6345988797bd1",
      "transactionIndex": "0xe",
      "blockHash": "0x1ae3182cc85038409346693d41a8a61aad08bc833a17da576b245e3cc78d3495",
      "blockNumber": "0x268ca62",
      "gasUsed": "0xa381",
      "effectiveGasPrice": "0x4c",
      "from": "0xf9562d5eac0acfae5274aa30f7231d62818b593c",
      "to": "0xc2958f59c2f333b1ad462c7a3969da1e0b662459",
      "contractAddress": null
    }
  ],
  "libraries": [],
  "pending": [],
  "returns": {},
  "timestamp": 1749097576,
  "chain": 100,
  "commit": "419e430"
}