{
  "transactions": [
    {
      "hash": "0x1616d0eecba9f183854ab70491680fc09b6a7dcf0f344610815eb4f25fc2ad0b",
      "transactionType": "CALL",
      "contractName": null,
      "contractAddress": "0xc2958f59c2f333b1ad462c7a3969da1e0b662459",
      "function": "startElection(uint256)",
      "arguments": [
        "6"
      ],
      "transaction": {
        "from": "0xf9562d5eac0acfae5274aa30f7231d62818b593c",
        "to": "0xc2958f59c2f333b1ad462c7a3969da1e0b662459",
        "gas": "0x14d34",
        "value": "0x0",
        "input": "0x6d32dc4b0000000000000000000000000000000000000000000000000000000000000006",
        "nonce": "0x48",
        "chainId": "0x64"
      },
      "additionalContracts": [],
      "isFixedGasLimit": false
    }
  ],
  "receipts": [
    {
      "status": "0x1",
      "cumulativeGasUsed": "0xae7fe",
      "logs": [
        {
          "address": "0xc2958f59c2f333b1ad462c7a3969da1e0b662459",
          "topics": [
            "0x12b37df6c3e196249962cd4347a3d9d9e6444d63d7f1bd286129f93ca919fb3d",
            "0x0000000000000000000000000000000000000000000000000000000000000006"
          ],
          "data": "0x00000000000000000000000000000000000000000000000000000000000000000000000000000000000000000000000000000000000000000000000000000001",
          "blockHash": "0x3af93dc3fde4d43f6491f2d544d6f5130c9279c1616658c14949c61de97b0187",
          "blockNumber": "0x26b9fa7",
          "transactionHash": "0x1616d0eecba9f183854ab70491680fc09b6a7dcf0f344610815eb4f25fc2ad0b",
          "transactionIndex": "0x4",
          "logIndex": "0x1d",
          "removed": false
        }
      ],
      "logsBloom": "0x00000000000000000000000000000000000000000000000000000000000000400000000000000000000000000000000000000000000400000000000000000000000000000000000000000000000000000000000000000000000000000000000000000000000002000000000002000000000000000000000000000000000000000000000400000000000000000000000000000000000000000000000000000000000000000000000000000100000000000000000000000000000000080000000000000000000000000000001000000000000000000000000000000000000000000000000000000000000000000000000080000000000000000000000000000000",
      "type": "0x2",
      "transactionHash": "0x1616d0eecba9f183854ab70491680fc09b6a7dcf0f344610815eb4f25fc2ad0b",
      "transactionIndex": "0x4",
      "blockHash": "0x3af93dc3fde4d43f6491f2d544d6f5130c9279c1616658c14949c61de97b0187",
      "blockNumber": "0x26b9fa7",
      "gasUsed": "0xf13d",
      "effectiveGasPrice": "0x4f",
      "from": "0xf9562d5eac0acfae5274aa30f7231d62818b593c",
      "to": "0xc2958f59c2f333b1ad462c7a3969da1e0b662459",
      "contractAddress": null
    }
  ],
  "libraries": [],
  "pending": [],
  "returns": {},
  "timestamp": 1750044470,
  "chain": 100,
  "commit": "49077eb"
}