{
  "transactions": [
    {
      "hash": "0xf7eb1476d9c82c5fb3f7851d7e1115b1e206f9ac252c5a782fbfe20ec660ab56",
      "transactionType": "CALL",
      "contractName": null,
      "contractAddress": "0xc2958f59c2f333b1ad462c7a3969da1e0b662459",
      "function": "startElection(uint256)",
      "arguments": [
        "1"
      ],
      "transaction": {
        "from": "0xf9562d5eac0acfae5274aa30f7231d62818b593c",
        "to": "0xc2958f59c2f333b1ad462c7a3969da1e0b662459",
        "gas": "0xef1f",
        "value": "0x0",
        "input": "0x6d32dc4b0000000000000000000000000000000000000000000000000000000000000001",
        "nonce": "0x41",
        "chainId": "0x64"
      },
      "additionalContracts": [],
      "isFixedGasLimit": false
    }
  ],
  "receipts": [
    {
      "status": "0x1",
      "cumulativeGasUsed": "0x9af96e",
      "logs": [
        {
          "address": "0xc2958f59c2f333b1ad462c7a3969da1e0b662459",
          "topics": [
            "0x12b37df6c3e196249962cd4347a3d9d9e6444d63d7f1bd286129f93ca919fb3d",
            "0x0000000000000000000000000000000000000000000000000000000000000001"
          ],
          "data": "0x00000000000000000000000000000000000000000000000000000000000000010000000000000000000000000000000000000000000000000000000000000001",
          "blockHash": "0x1d020c307a58da31522a5edd4506413ab9bebef1b375dece9294845161131045",
          "blockNumber": "0x26b9ebb",
          "transactionHash": "0xf7eb1476d9c82c5fb3f7851d7e1115b1e206f9ac252c5a782fbfe20ec660ab56",
          "transactionIndex": "0xb",
          "logIndex": "0x1a6",
          "removed": false
        }
      ],
      "logsBloom": "0x00000000000000000000000000000000000000000000000000000000000000400000000000000000000000000000000000000000000000000000000000040000000000000000000000000000000000000000000000040000000000000000000000000000000002000000000002000000000000000000000000000000000000000000000000000000000000000000000000000000000000000000000000000000000000000000000000000100000000000000000000000000000000000000000000000000000000000000001000000000000000000000000000000000000040000000000000000000000000000000000080000000000000000000000000000000",
      "type": "0x2",
      "transactionHash": "0xf7eb1476d9c82c5fb3f7851d7e1115b1e206f9ac252c5a782fbfe20ec660ab56",
      "transactionIndex": "0xb",
      "blockHash": "0x1d020c307a58da31522a5edd4506413ab9bebef1b375dece9294845161131045",
      "blockNumber": "0x26b9ebb",
      "gasUsed": "0xa381",
      "effectiveGasPrice": "0x50",
      "from": "0xf9562d5eac0acfae5274aa30f7231d62818b593c",
      "to": "0xc2958f59c2f333b1ad462c7a3969da1e0b662459",
      "contractAddress": null
    }
  ],
  "libraries": [],
  "pending": [],
  "returns": {},
  "timestamp": 1750043276,
  "chain": 100,
  "commit": "49077eb"
}