{
  "transactions": [
    {
      "hash": "0x7f73d3e16f7cc15124664b22acd31706235a6886cc33aae0ab0fd4a5260b18c4",
      "transactionType": "CALL",
      "contractName": null,
      "contractAddress": "0xc2958f59c2f333b1ad462c7a3969da1e0b662459",
      "function": "createElection(uint256,uint256,uint8,uint8,uint8,string,bytes)",
      "arguments": [
        "1750043855",
        "1750197600",
        "0",
        "0",
        "0",
        "QmexvHpnRwF4JwJ7QzerFpCYRVhvjKALD2JgB3ycSeNYfo",
        "0x30820122300d06092a864886f70d01010105000382010f003082010a0282010100ccd5e0e0328af1c0a7d2e80e0cfe7e4941d7a560218226edda2d09fd9d52dd31b9ffb005f8f8a33030372a8dd7052abc4099a3c870e88a2e6751524a6cc97dc576b92aab29f6d788610f7c899371902f75d8dc58dd1a042c0df4db76e5145139164853b7de4a1a0b078d5ba531ea457dcee4305527f1044a3e76450ea78bde7703c4ff74d74888eb739055d809a71f7e254b801cb41a9f137409bef4312c4da68cf641407e7ce071cf1adfc9f2b3bf25af638aee163f4403363bf24104bcbbc05559f53a24c30d830ac951bfa51e552dd78df9fe0ca027d43b3cddee91d58d955925ee6993fd5c99b347a3c14cadd1b65291c6b63048ddd1075ef8c8f81f38490203010001"
      ],
      "transaction": {
        "from": "0xf9562d5eac0acfae5274aa30f7231d62818b593c",
        "to": "0xc2958f59c2f333b1ad462c7a3969da1e0b662459",
        "gas": "0x9445b",
        "value": "0x0",
        "input": "0xb124798300000000000000000000000000000000000000000000000000000000684f8ccf000000000000000000000000000000000000000000000000000000006851e56000000000000000000000000000000000000000000000000000000000000000000000000000000000000000000000000000000000000000000000000000000000000000000000000000000000000000000000000000000000000000000000000000000000000000000000000000000000000000000000000000000000000000e00000000000000000000000000000000000000000000000000000000000000140000000000000000000000000000000000000000000000000000000000000002e516d65787648706e527746344a774a37517a657246704359525668766a4b414c44324a674233796353654e59666f000000000000000000000000000000000000000000000000000000000000000000000000000000000000000000000000012630820122300d06092a864886f70d01010105000382010f003082010a0282010100ccd5e0e0328af1c0a7d2e80e0cfe7e4941d7a560218226edda2d09fd9d52dd31b9ffb005f8f8a33030372a8dd7052abc4099a3c870e88a2e6751524a6cc97dc576b92aab29f6d788610f7c899371902f75d8dc58dd1a042c0df4db76e5145139164853b7de4a1a0b078d5ba531ea457dcee4305527f1044a3e76450ea78bde7703c4ff74d74888eb739055d809a71f7e254b801cb41a9f137409bef4312c4da68cf641407e7ce071cf1adfc9f2b3bf25af638aee163f4403363bf24104bcbbc05559f53a24c30d830ac951bfa51e552dd78df9fe0ca027d43b3cddee91d58d955925ee6993fd5c99b347a3c14cadd1b65291c6b63048ddd1075ef8c8f81f384902030100010000000000000000000000000000000000000000000000000000",
        "nonce": "0x44",
        "chainId": "0x64"
      },
      "additionalContracts": [],
      "isFixedGasLimit": false
    }
  ],
  "receipts": [
    {
      "status": "0x1",
      "cumulativeGasUsed": "0x1934bd",
      "logs": [
        {
          "address": "0xc2958f59c2f333b1ad462c7a3969da1e0b662459",
          "topics": [
            "0x156278f14e9e7a4cae711d0a34c4509a150ed6f3c9365eb06f33bafe8ee520de",
            "0x0000000000000000000000000000000000000000000000000000000000000006"
          ],
          "data": "0x00000000000000000000000000000000000000000000000000000000684f8ccf000000000000000000000000000000000000000000000000000000006851e56000000000000000000000000000000000000000000000000000000000000000000000000000000000000000000000000000000000000000000000000000000000000000000000000000000000000000000000000000000000000000000000000000000000000000000000000000000000000000000000000000000000000000e00000000000000000000000000000000000000000000000000000000000000140000000000000000000000000000000000000000000000000000000000000002e516d65787648706e527746344a774a37517a657246704359525668766a4b414c44324a674233796353654e59666f000000000000000000000000000000000000000000000000000000000000000000000000000000000000000000000000012630820122300d06092a864886f70d01010105000382010f003082010a0282010100ccd5e0e0328af1c0a7d2e80e0cfe7e4941d7a560218226edda2d09fd9d52dd31b9ffb005f8f8a33030372a8dd7052abc4099a3c870e88a2e6751524a6cc97dc576b92aab29f6d788610f7c899371902f75d8dc58dd1a042c0df4db76e5145139164853b7de4a1a0b078d5ba531ea457dcee4305527f1044a3e76450ea78bde7703c4ff74d74888eb739055d809a71f7e254b801cb41a9f137409bef4312c4da68cf641407e7ce071cf1adfc9f2b3bf25af638aee163f4403363bf24104bcbbc05559f53a24c30d830ac951bfa51e552dd78df9fe0ca027d43b3cddee91d58d955925ee6993fd5c99b347a3c14cadd1b65291c6b63048ddd1075ef8c8f81f384902030100010000000000000000000000000000000000000000000000000000",
          "blockHash": "0xec4766c8fcb5ae5433a5e75cb3355f9fcd4ed28543e0754f1840997ae219c2c6",
          "blockNumber": "0x26b9f25",
          "transactionHash": "0x7f73d3e16f7cc15124664b22acd31706235a6886cc33aae0ab0fd4a5260b18c4",
          "transactionIndex": "0x5",
          "logIndex": "0xd",
          "removed": false
        }
      ],
      "logsBloom": "0x00000000000000000000000000000000000000000000000000000010000000400000000000000000000002000000000000000000000400000000000000000000000000004000000000000000000000000000000000000000000000000000000000000000000000000000000000000000000000000000000000000000000000000000000400000000000000000000000000000000000000000000000000000000000000000000000000000100000000000000000000000000000000080000000000000000000000000000000000000000000000000000000000000000000000000000000000000000000000000000000080000000000000000000000000000000",
      "type": "0x2",
      "transactionHash": "0x7f73d3e16f7cc15124664b22acd31706235a6886cc33aae0ab0fd4a5260b18c4",
      "transactionIndex": "0x5",
      "blockHash": "0xec4766c8fcb5ae5433a5e75cb3355f9fcd4ed28543e0754f1840997ae219c2c6",
      "blockNumber": "0x26b9f25",
      "gasUsed": "0x6b58c",
      "effectiveGasPrice": "0x53",
      "from": "0xf9562d5eac0acfae5274aa30f7231d62818b593c",
      "to": "0xc2958f59c2f333b1ad462c7a3969da1e0b662459",
      "contractAddress": null
    }
  ],
  "libraries": [],
  "pending": [],
  "returns": {},
  "timestamp": 1750043807,
  "chain": 100,
  "commit": "49077eb"
}