{
  "transactions": [
    {
      "hash": "0x935de3d7ec2d6658a7de4f5deaee0bc9378f4bc8f23711ce7767ef330aaa9fc4",
      "transactionType": "CALL",
      "contractName": null,
      "contractAddress": "0xc2958f59c2f333b1ad462c7a3969da1e0b662459",
      "function": "createElection(uint256,uint256,uint8,uint8,uint8,string,bytes)",
      "arguments": [
        "1747122105",
        "1810194045",
        "0",
        "0",
        "0",
        "QmZqTBGCNXgGxtKGVR5YrhNqxkEfxu4amSTh7maoPdxLLp",
        "0x30820122300d06092a864886f70d01010105000382010f003082010a0282010100a68ef1d1114eae8365a271d3b0325ef673df75b553b3b65bcbd3750f891660d5c623d56982109d359a68b2f5efdeecd8c91aebb1d5613bb6d5b0d46905e8b6cd7479340698805751d85d58f6610fbf0b84dcc06e4453fbd246c1b9d65afb91881be17c9efe62fc02cbc8f37429f78cf974e440cc2522b71af05fe80c03e02a5b1a47838c1dba14e9dcc1485208cd7c337945510727022ab01850141446fbe26a3b114270dbb74100356c658bfd707e91164b67fd62ccdaced064f902f38a45dd2d2ea729f8c7e1aa4078529fbe5c5b42e3a04910325cf8d7b2521824feeadff2fbd44cd6472e6cd008993ac6a26c004343cf137666aefb207bfef173d889c2550203010001"
      ],
      "transaction": {
        "from": "0xf9562d5eac0acfae5274aa30f7231d62818b593c",
        "to": "0xc2958f59c2f333b1ad462c7a3969da1e0b662459",
        "gas": "0x9443b",
        "value": "0x0",
        "input": "0xb1247983000000000000000000000000000000000000000000000000000000006822f7b9000000000000000000000000000000000000000000000000000000006be55e7d00000000000000000000000000000000000000000000000000000000000000000000000000000000000000000000000000000000000000000000000000000000000000000000000000000000000000000000000000000000000000000000000000000000000000000000000000000000000000000000000000000000000000e00000000000000000000000000000000000000000000000000000000000000140000000000000000000000000000000000000000000000000000000000000002e516d5a71544247434e58674778744b475652355972684e71786b4566787534616d535468376d616f5064784c4c70000000000000000000000000000000000000000000000000000000000000000000000000000000000000000000000000012630820122300d06092a864886f70d01010105000382010f003082010a0282010100a68ef1d1114eae8365a271d3b0325ef673df75b553b3b65bcbd3750f891660d5c623d56982109d359a68b2f5efdeecd8c91aebb1d5613bb6d5b0d46905e8b6cd7479340698805751d85d58f6610fbf0b84dcc06e4453fbd246c1b9d65afb91881be17c9efe62fc02cbc8f37429f78cf974e440cc2522b71af05fe80c03e02a5b1a47838c1dba14e9dcc1485208cd7c337945510727022ab01850141446fbe26a3b114270dbb74100356c658bfd707e91164b67fd62ccdaced064f902f38a45dd2d2ea729f8c7e1aa4078529fbe5c5b42e3a04910325cf8d7b2521824feeadff2fbd44cd6472e6cd008993ac6a26c004343cf137666aefb207bfef173d889c25502030100010000000000000000000000000000000000000000000000000000",
        "nonce": "0x3a",
        "chainId": "0x64"
      },
      "additionalContracts": [],
      "isFixedGasLimit": false
    }
  ],
  "receipts": [
    {
      "status": "0x1",
      "cumulativeGasUsed": "0x46139e",
      "logs": [
        {
          "address": "0xc2958f59c2f333b1ad462c7a3969da1e0b662459",
          "topics": [
            "0x156278f14e9e7a4cae711d0a34c4509a150ed6f3c9365eb06f33bafe8ee520de",
            "0x0000000000000000000000000000000000000000000000000000000000000001"
          ],
          "data": "0x000000000000000000000000000000000000000000000000000000006822f7b9000000000000000000000000000000000000000000000000000000006be55e7d00000000000000000000000000000000000000000000000000000000000000000000000000000000000000000000000000000000000000000000000000000000000000000000000000000000000000000000000000000000000000000000000000000000000000000000000000000000000000000000000000000000000000e00000000000000000000000000000000000000000000000000000000000000140000000000000000000000000000000000000000000000000000000000000002e516d5a71544247434e58674778744b475652355972684e71786b4566787534616d535468376d616f5064784c4c70000000000000000000000000000000000000000000000000000000000000000000000000000000000000000000000000012630820122300d06092a864886f70d01010105000382010f003082010a0282010100a68ef1d1114eae8365a271d3b0325ef673df75b553b3b65bcbd3750f891660d5c623d56982109d359a68b2f5efdeecd8c91aebb1d5613bb6d5b0d46905e8b6cd7479340698805751d85d58f6610fbf0b84dcc06e4453fbd246c1b9d65afb91881be17c9efe62fc02cbc8f37429f78cf974e440cc2522b71af05fe80c03e02a5b1a47838c1dba14e9dcc1485208cd7c337945510727022ab01850141446fbe26a3b114270dbb74100356c658bfd707e91164b67fd62ccdaced064f902f38a45dd2d2ea729f8c7e1aa4078529fbe5c5b42e3a04910325cf8d7b2521824feeadff2fbd44cd6472e6cd008993ac6a26c004343cf137666aefb207bfef173d889c25502030100010000000000000000000000000000000000000000000000000000",
          "blockHash": "0x6702af2361e03e9edeca8aafdf066fb36340c7386fd9776e3b76283a9a73de94",
          "blockNumber": "0x262edbe",
          "transactionHash": "0x935de3d7ec2d6658a7de4f5deaee0bc9378f4bc8f23711ce7767ef330aaa9fc4",
          "transactionIndex": "0x8",
          "logIndex": "0x6",
          "removed": false
        }
      ],
      "logsBloom": "0x00000000000000000000000000000000000000000000000000000010000000400000000000000000000002000000000000000000000000000000000000040000000000004000000000000000000000000000000000040000000000000000000000000000000000000000000000000000000000000000000000000000000000000000000000000000000000000000000000000000000000000000000000000000000000000000000000000100000000000000000000000000000000000000000000000000000000000000000000000000000000000000000000000000000040000000000000000000000000000000000080000000000000000000000000000000",
      "type": "0x2",
      "transactionHash": "0x935de3d7ec2d6658a7de4f5deaee0bc9378f4bc8f23711ce7767ef330aaa9fc4",
      "transactionIndex": "0x8",
      "blockHash": "0x6702af2361e03e9edeca8aafdf066fb36340c7386fd9776e3b76283a9a73de94",
      "blockNumber": "0x262edbe",
      "gasUsed": "0x6b574",
      "effectiveGasPrice": "0x1d",
      "from": "0xf9562d5eac0acfae5274aa30f7231d62818b593c",
      "to": "0xc2958f59c2f333b1ad462c7a3969da1e0b662459",
      "contractAddress": null
    }
  ],
  "libraries": [],
  "pending": [],
  "returns": {},
  "timestamp": 1747122057,
  "chain": 100,
  "commit": "01e6994"
}