{
  "transactions": [
    {
      "hash": "0xc06a2cd36a90f638501cf632628fa45d1094601ee2c67929c2df2c28559f266e",
      "transactionType": "CALL",
      "contractName": null,
      "contractAddress": "0xc2958f59c2f333b1ad462c7a3969da1e0b662459",
      "function": "createElection(uint256,uint256,uint8,uint8,uint8,string,bytes)",
      "arguments": [
        "1749175860",
        "1780264800",
        "0",
        "0",
        "0",
        "Qmbn8mw8oHx8ZCHGPnxk7vjLdSvpCqFxHeA4W1BA9TwRmy",
        "0x30820122300d06092a864886f70d01010105000382010f003082010a0282010100c63335484999c6e4f29e007be90aa640dfb125af42206e89c93fbfcc03f7f0e5d7824a9f9eb68afab7cec7408b2776b5609afc868433945ecfee636f6b701679dab3031d065784cf37bcd2f7dda9658c439b3fec8887125d88b5f04fa589d57600a5c9ae84149fc2a942bb4aeecdfc20b71f63433abd46ff29cd996e9258948a69848440748f226d8632a52f59f73eee6cff862925fd137ec695ed3ed2a405b6355b4aa0a75c67b6ff120a7e87737feb743b830191b736adffe0df5900ad82b6fb0158e26b5c14d37d87775da1a81a1a94d39a65401ffd6d0c0502422fcc33fcc5a0c57705380cfa8d2720ba50eafc340294ae7da3b1260065313c846a46235b0203010001"
      ],
      "transaction": {
        "from": "0xf9562d5eac0acfae5274aa30f7231d62818b593c",
        "to": "0xc2958f59c2f333b1ad462c7a3969da1e0b662459",
        "gas": "0x94419",
        "value": "0x0",
        "input": "0xb12479830000000000000000000000000000000000000000000000000000000068424e34000000000000000000000000000000000000000000000000000000006a1caf6000000000000000000000000000000000000000000000000000000000000000000000000000000000000000000000000000000000000000000000000000000000000000000000000000000000000000000000000000000000000000000000000000000000000000000000000000000000000000000000000000000000000000e00000000000000000000000000000000000000000000000000000000000000140000000000000000000000000000000000000000000000000000000000000002e516d626e386d77386f4878385a434847506e786b37766a4c64537670437146784865413457314241395477526d79000000000000000000000000000000000000000000000000000000000000000000000000000000000000000000000000012630820122300d06092a864886f70d01010105000382010f003082010a0282010100c63335484999c6e4f29e007be90aa640dfb125af42206e89c93fbfcc03f7f0e5d7824a9f9eb68afab7cec7408b2776b5609afc868433945ecfee636f6b701679dab3031d065784cf37bcd2f7dda9658c439b3fec8887125d88b5f04fa589d57600a5c9ae84149fc2a942bb4aeecdfc20b71f63433abd46ff29cd996e9258948a69848440748f226d8632a52f59f73eee6cff862925fd137ec695ed3ed2a405b6355b4aa0a75c67b6ff120a7e87737feb743b830191b736adffe0df5900ad82b6fb0158e26b5c14d37d87775da1a81a1a94d39a65401ffd6d0c0502422fcc33fcc5a0c57705380cfa8d2720ba50eafc340294ae7da3b1260065313c846a46235b02030100010000000000000000000000000000000000000000000000000000",
        "nonce": "0x40",
        "chainId": "0x64"
      },
      "additionalContracts": [],
      "isFixedGasLimit": false
    }
  ],
  "receipts": [
    {
      "status": "0x1",
      "cumulativeGasUsed": "0xc3e74",
      "logs": [
        {
          "address": "0xc2958f59c2f333b1ad462c7a3969da1e0b662459",
          "topics": [
            "0x156278f14e9e7a4cae711d0a34c4509a150ed6f3c9365eb06f33bafe8ee520de",
            "0x0000000000000000000000000000000000000000000000000000000000000003"
          ],
          "data": "0x0000000000000000000000000000000000000000000000000000000068424e34000000000000000000000000000000000000000000000000000000006a1caf6000000000000000000000000000000000000000000000000000000000000000000000000000000000000000000000000000000000000000000000000000000000000000000000000000000000000000000000000000000000000000000000000000000000000000000000000000000000000000000000000000000000000000e00000000000000000000000000000000000000000000000000000000000000140000000000000000000000000000000000000000000000000000000000000002e516d626e386d77386f4878385a434847506e786b37766a4c64537670437146784865413457314241395477526d79000000000000000000000000000000000000000000000000000000000000000000000000000000000000000000000000012630820122300d06092a864886f70d01010105000382010f003082010a0282010100c63335484999c6e4f29e007be90aa640dfb125af42206e89c93fbfcc03f7f0e5d7824a9f9eb68afab7cec7408b2776b5609afc868433945ecfee636f6b701679dab3031d065784cf37bcd2f7dda9658c439b3fec8887125d88b5f04fa589d57600a5c9ae84149fc2a942bb4aeecdfc20b71f63433abd46ff29cd996e9258948a69848440748f226d8632a52f59f73eee6cff862925fd137ec695ed3ed2a405b6355b4aa0a75c67b6ff120a7e87737feb743b830191b736adffe0df5900ad82b6fb0158e26b5c14d37d87775da1a81a1a94d39a65401ffd6d0c0502422fcc33fcc5a0c57705380cfa8d2720ba50eafc340294ae7da3b1260065313c846a46235b02030100010000000000000000000000000000000000000000000000000000",
          "blockHash": "0x53470989e6bc366fb7db5b21af3aec026e8bac17ea093204b29a1359264873f2",
          "blockNumber": "0x2690654",
          "transactionHash": "0xc06a2cd36a90f638501cf632628fa45d1094601ee2c67929c2df2c28559f266e",
          "transactionIndex": "0x2",
          "logIndex": "0xe",
          "removed": false
        }
      ],
      "logsBloom": "0x00000000000000000000000000000000000000000000000000000010000000400000000000000000000002000000000000000000020000000000000000000000000000004000000000000000000000000000000000000000000000000000000000000000000000000000000000000000000000000000000000000000000000000000000000000000000000000000000000000000000000000000000000000000000000000000000000000100000000000000000000800000000000000000400000000000000000000000000000000000000000000000000000000000000000000000000000000000000000000000000080000000000000000000000000000000",
      "type": "0x2",
      "transactionHash": "0xc06a2cd36a90f638501cf632628fa45d1094601ee2c67929c2df2c28559f266e",
      "transactionIndex": "0x2",
      "blockHash": "0x53470989e6bc366fb7db5b21af3aec026e8bac17ea093204b29a1359264873f2",
      "blockNumber": "0x2690654",
      "gasUsed": "0x6b55c",
      "effectiveGasPrice": "0x4f",
      "from": "0xf9562d5eac0acfae5274aa30f7231d62818b593c",
      "to": "0xc2958f59c2f333b1ad462c7a3969da1e0b662459",
      "contractAddress": null
    }
  ],
  "libraries": [],
  "pending": [],
  "returns": {},
  "timestamp": 1749175806,
  "chain": 100,
  "commit": "419e430"
}