{
  "transactions": [
    {
      "hash": "0x090a7d48888e99c99f4215b4a0c84e78be03ccccfe156f6bc20391c59cec5396",
      "transactionType": "CALL",
      "contractName": null,
      "contractAddress": "0xc2958f59c2f333b1ad462c7a3969da1e0b662459",
      "function": "createElection(uint256,uint256,uint8,uint8,uint8,string,bytes)",
      "arguments": [
        "1781474400",
        "1811800800",
        "0",
        "0",
        "0",
        "QmQ7oksC4kpoKXNsN7BfHgZyUrWaAhuezeWi788Lt8izff",
        "0x30820122300d06092a864886f70d01010105000382010f003082010a0282010100b64fea1df6b657aead59b9fd81dc19bc8f301715bb1b86af0baf413a230e463e25fcd529ca0224303ae329a8996aa0b450bb916cd249329598016fa6dede402c4acbba02e013364ba7364c2c776d6cdd0e9d330a6816b24b50bc9e9e0a3aaecbbc799bf6c7543760a40a660234f47321d31823e7785c28201c432ae4a8f0fd8fd18c20aaf4570b4fb1f85c452d9417216ac178d31ece1684b9a7822be2536f253286d9f01aae2cbfedaa7f854eab2c1d81c1807cf19019fbca9cd7e4ed94b03dfbc99d01f04ff095da4a69ef6b3b7af245a8f7686c00c5e6b8e2cb4a99acb17dbe609673ce8b49665ef1a1b6cd2dd30a4bdb033ee9ac4c577d24ec2280d668650203010001"
      ],
      "transaction": {
        "from": "0xf9562d5eac0acfae5274aa30f7231d62818b593c",
        "to": "0xc2958f59c2f333b1ad462c7a3969da1e0b662459",
        "gas": "0x9444c",
        "value": "0x0",
        "input": "0xb1247983000000000000000000000000000000000000000000000000000000006a2f2460000000000000000000000000000000000000000000000000000000006bfde2e000000000000000000000000000000000000000000000000000000000000000000000000000000000000000000000000000000000000000000000000000000000000000000000000000000000000000000000000000000000000000000000000000000000000000000000000000000000000000000000000000000000000000e00000000000000000000000000000000000000000000000000000000000000140000000000000000000000000000000000000000000000000000000000000002e516d51376f6b7343346b706f4b584e734e37426648675a7955725761416875657a6557693738384c7438697a6666000000000000000000000000000000000000000000000000000000000000000000000000000000000000000000000000012630820122300d06092a864886f70d01010105000382010f003082010a0282010100b64fea1df6b657aead59b9fd81dc19bc8f301715bb1b86af0baf413a230e463e25fcd529ca0224303ae329a8996aa0b450bb916cd249329598016fa6dede402c4acbba02e013364ba7364c2c776d6cdd0e9d330a6816b24b50bc9e9e0a3aaecbbc799bf6c7543760a40a660234f47321d31823e7785c28201c432ae4a8f0fd8fd18c20aaf4570b4fb1f85c452d9417216ac178d31ece1684b9a7822be2536f253286d9f01aae2cbfedaa7f854eab2c1d81c1807cf19019fbca9cd7e4ed94b03dfbc99d01f04ff095da4a69ef6b3b7af245a8f7686c00c5e6b8e2cb4a99acb17dbe609673ce8b49665ef1a1b6cd2dd30a4bdb033ee9ac4c577d24ec2280d6686502030100010000000000000000000000000000000000000000000000000000",
        "nonce": "0x45",
        "chainId": "0x64"
      },
      "additionalContracts": [],
      "isFixedGasLimit": false
    }
  ],
  "receipts": [
    {
      "status": "0x1",
      "cumulativeGasUsed": "0x8a96c2",
      "logs": [
        {
          "address": "0xc2958f59c2f333b1ad462c7a3969da1e0b662459",
          "topics": [
            "0x156278f14e9e7a4cae711d0a34c4509a150ed6f3c9365eb06f33bafe8ee520de",
            "0x0000000000000000000000000000000000000000000000000000000000000007"
          ],
          "data": "0x000000000000000000000000000000000000000000000000000000006a2f2460000000000000000000000000000000000000000000000000000000006bfde2e000000000000000000000000000000000000000000000000000000000000000000000000000000000000000000000000000000000000000000000000000000000000000000000000000000000000000000000000000000000000000000000000000000000000000000000000000000000000000000000000000000000000000e00000000000000000000000000000000000000000000000000000000000000140000000000000000000000000000000000000000000000000000000000000002e516d51376f6b7343346b706f4b584e734e37426648675a7955725761416875657a6557693738384c7438697a6666000000000000000000000000000000000000000000000000000000000000000000000000000000000000000000000000012630820122300d06092a864886f70d01010105000382010f003082010a0282010100b64fea1df6b657aead59b9fd81dc19bc8f301715bb1b86af0baf413a230e463e25fcd529ca0224303ae329a8996aa0b450bb916cd249329598016fa6dede402c4acbba02e013364ba7364c2c776d6cdd0e9d330a6816b24b50bc9e9e0a3aaecbbc799bf6c7543760a40a660234f47321d31823e7785c28201c432ae4a8f0fd8fd18c20aaf4570b4fb1f85c452d9417216ac178d31ece1684b9a7822be2536f253286d9f01aae2cbfedaa7f854eab2c1d81c1807cf19019fbca9cd7e4ed94b03dfbc99d01f04ff095da4a69ef6b3b7af245a8f7686c00c5e6b8e2cb4a99acb17dbe609673ce8b49665ef1a1b6cd2dd30a4bdb033ee9ac4c577d24ec2280d6686502030100010000000000000000000000000000000000000000000000000000",
          "blockHash": "0xb44767f6f800b77d734b0dd63dfad23a2320336243c4a7f12c118b214c153033",
          "blockNumber": "0x26b9f5d",
          "transactionHash": "0x090a7d48888e99c99f4215b4a0c84e78be03ccccfe156f6bc20391c59cec5396",
          "transactionIndex": "0x47",
          "logIndex": "0x62",
          "removed": false
        }
      ],
      "logsBloom": "0x00000000000000000000000000000000000000000000000000000010000000400000000000000000000002000000000000001000000000000000000000000000000020004000000000000000000000000000000000000000000000000000000000000000000000000000000000000000000000000000000000000000000000000000000000000000000000000000000000000000000000000000000000000000000000000000000000000100000000000000000000000000000000000000000000000000000000000000000000000000000000000000000000000100000000000000000000000000000000000000000080000000000000000000000000000000",
      "type": "0x2",
      "transactionHash": "0x090a7d48888e99c99f4215b4a0c84e78be03ccccfe156f6bc20391c59cec5396",
      "transactionIndex": "0x47",
      "blockHash": "0xb44767f6f800b77d734b0dd63dfad23a2320336243c4a7f12c118b214c153033",
      "blockNumber": "0x26b9f5d",
      "gasUsed": "0x6b580",
      "effectiveGasPrice": "0x51",
      "from": "0xf9562d5eac0acfae5274aa30f7231d62818b593c",
      "to": "0xc2958f59c2f333b1ad462c7a3969da1e0b662459",
      "contractAddress": null
    }
  ],
  "libraries": [],
  "pending": [],
  "returns": {},
  "timestamp": 1750044096,
  "chain": 100,
  "commit": "49077eb"
}