{
  "transactions": [
    {
      "hash": "0x3a9f1c512820d632f4b9c80dc9d6723c27643ef69d8132d7a85effb972a5d380",
      "transactionType": "CALL",
      "contractName": null,
      "contractAddress": "0xc2958f59c2f333b1ad462c7a3969da1e0b662459",
      "function": "createElection(uint256,uint256,uint8,uint8,uint8,string,bytes)",
      "arguments": [
        "1750043415",
        "1780264800",
        "0",
        "0",
        "0",
        "QmVzmzihUcp81DpVAMT3P2PmjnhK81TviyGNEdDLwCgyQX",
        "0x30820122300d06092a864886f70d01010105000382010f003082010a0282010100b25621a231f945819d4917bc1f5d94b931780b57c550b6dbd5d2d18f3ec0866732d5a0db9ac0c8817afec1d889aefa5d97cb14b2136a152904716a0ed16710c45565c343490d980cda82c526caa73cbe16494fb5d8d9042fc45e4b5e95a8a6b7a0e5f45f1b65560bb79d4760f2494923db140f4dedaea1aa9ac1ec2c0706080b23efbd5d8b2598bec2826640ef81ad189ea1d69452a3df78bdbc27acf71abb21c6e562e6246ce93894bc251fe8ab72370f237d61229f921492aecfa6a3314d7da7d51f3da9060dcf5f0f4c6eafc19546b12893af14d20409acbe09a2c372a73b32a6e9fdb24317a75b959ef4eb66b4b75095d67b26273a58d3e7afb0533aabcb0203010001"
      ],
      "transaction": {
        "from": "0xf9562d5eac0acfae5274aa30f7231d62818b593c",
        "to": "0xc2958f59c2f333b1ad462c7a3969da1e0b662459",
        "gas": "0x9445b",
        "value": "0x0",
        "input": "0xb124798300000000000000000000000000000000000000000000000000000000684f8b17000000000000000000000000000000000000000000000000000000006a1caf6000000000000000000000000000000000000000000000000000000000000000000000000000000000000000000000000000000000000000000000000000000000000000000000000000000000000000000000000000000000000000000000000000000000000000000000000000000000000000000000000000000000000000e00000000000000000000000000000000000000000000000000000000000000140000000000000000000000000000000000000000000000000000000000000002e516d567a6d7a69685563703831447056414d54335032506d6a6e684b383154766979474e4564444c774367795158000000000000000000000000000000000000000000000000000000000000000000000000000000000000000000000000012630820122300d06092a864886f70d01010105000382010f003082010a0282010100b25621a231f945819d4917bc1f5d94b931780b57c550b6dbd5d2d18f3ec0866732d5a0db9ac0c8817afec1d889aefa5d97cb14b2136a152904716a0ed16710c45565c343490d980cda82c526caa73cbe16494fb5d8d9042fc45e4b5e95a8a6b7a0e5f45f1b65560bb79d4760f2494923db140f4dedaea1aa9ac1ec2c0706080b23efbd5d8b2598bec2826640ef81ad189ea1d69452a3df78bdbc27acf71abb21c6e562e6246ce93894bc251fe8ab72370f237d61229f921492aecfa6a3314d7da7d51f3da9060dcf5f0f4c6eafc19546b12893af14d20409acbe09a2c372a73b32a6e9fdb24317a75b959ef4eb66b4b75095d67b26273a58d3e7afb0533aabcb02030100010000000000000000000000000000000000000000000000000000",
        "nonce": "0x42",
        "chainId": "0x64"
      },
      "additionalContracts": [],
      "isFixedGasLimit": false
    }
  ],
  "receipts": [
    {
      "status": "0x1",
      "cumulativeGasUsed": "0xbff0a1",
      "logs": [
        {
          "address": "0xc2958f59c2f333b1ad462c7a3969da1e0b662459",
          "topics": [
            "0x156278f14e9e7a4cae711d0a34c4509a150ed6f3c9365eb06f33bafe8ee520de",
            "0x0000000000000000000000000000000000000000000000000000000000000004"
          ],
          "data": "0x00000000000000000000000000000000000000000000000000000000684f8b17000000000000000000000000000000000000000000000000000000006a1caf6000000000000000000000000000000000000000000000000000000000000000000000000000000000000000000000000000000000000000000000000000000000000000000000000000000000000000000000000000000000000000000000000000000000000000000000000000000000000000000000000000000000000000e00000000000000000000000000000000000000000000000000000000000000140000000000000000000000000000000000000000000000000000000000000002e516d567a6d7a69685563703831447056414d54335032506d6a6e684b383154766979474e4564444c774367795158000000000000000000000000000000000000000000000000000000000000000000000000000000000000000000000000012630820122300d06092a864886f70d01010105000382010f003082010a0282010100b25621a231f945819d4917bc1f5d94b931780b57c550b6dbd5d2d18f3ec0866732d5a0db9ac0c8817afec1d889aefa5d97cb14b2136a152904716a0ed16710c45565c343490d980cda82c526caa73cbe16494fb5d8d9042fc45e4b5e95a8a6b7a0e5f45f1b65560bb79d4760f2494923db140f4dedaea1aa9ac1ec2c0706080b23efbd5d8b2598bec2826640ef81ad189ea1d69452a3df78bdbc27acf71abb21c6e562e6246ce93894bc251fe8ab72370f237d61229f921492aecfa6a3314d7da7d51f3da9060dcf5f0f4c6eafc19546b12893af14d20409acbe09a2c372a73b32a6e9fdb24317a75b959ef4eb66b4b75095d67b26273a58d3e7afb0533aabcb02030100010000000000000000000000000000000000000000000000000000",
          "blockHash": "0xf338473801ca2d1e41fcc03efd46f0795cbf1aabd5c1b559dd0686a6c1b5a5a7",
          "blockNumber": "0x26b9ecd",
          "transactionHash": "0x3a9f1c512820d632f4b9c80dc9d6723c27643ef69d8132d7a85effb972a5d380",
          "transactionIndex": "0x29",
          "logIndex": "0x87",
          "removed": false
        }
      ],
      "logsBloom": "0x00000000000000000000000000000000000000000000000000000010000000400000000000000000000002000000000000000000000000000000000000000000000000004000000000000000000000000000000000000000000000000000000008000000000000000000000000000000000000000000000000000000000000000000000000000000000000000000000000000000000000000000000000000000000000000000000000000100000000000000000000000000002000000000000000000000000000000000000000000000000000008000000000000000000000000000000000000000000000000000000080000000000000000000000000000000",
      "type": "0x2",
      "transactionHash": "0x3a9f1c512820d632f4b9c80dc9d6723c27643ef69d8132d7a85effb972a5d380",
      "transactionIndex": "0x29",
      "blockHash": "0xf338473801ca2d1e41fcc03efd46f0795cbf1aabd5c1b559dd0686a6c1b5a5a7",
      "blockNumber": "0x26b9ecd",
      "gasUsed": "0x6b58c",
      "effectiveGasPrice": "0x4e",
      "from": "0xf9562d5eac0acfae5274aa30f7231d62818b593c",
      "to": "0xc2958f59c2f333b1ad462c7a3969da1e0b662459",
      "contractAddress": null
    }
  ],
  "libraries": [],
  "pending": [],
  "returns": {},
  "timestamp": 1750043367,
  "chain": 100,
  "commit": "49077eb"
}