{
  "transactions": [
    {
      "hash": "0x93d3ce63d1b139398065a1716e67956a34297ee15d389545a2c06ba38d420c72",
      "transactionType": "CALL",
      "contractName": null,
      "contractAddress": "0xd7f44bf41e2408e73d692624a8a754ee139f0458",
      "function": "setElectionRegisterPublicKey(uint256,bytes,bytes)",
      "arguments": [
        "0",
        "0x00d4a8a98b01e65513c6b2d0e75fb63174994bf145104aec748f9e0a032a7b6fd07f7770ea13b82460684f4d4c9efcb39efa291f9ee5b5bb973ccffa61ff538ef4da1619ced6b88c64654e1b6f1cbccfef6de750c6eef4a0a99dd99e3fa6fa83793cf5c9d165897c621425eb276fd7415e77a59219ffae28c9cb2b6e37aef092c50e70b382c52e857da6ade1eba30a01301c57471a0c0ef6ef29d611b7e029a874617b31b355ab907c3731e5158cddb91dbde9da1f03757e4838351db1cd31c67981749e081bc584e694f15769e08ad9b62d97be3c3567b4730de607d16380f79101d35794c1eca9b3a7a573fac6299893306d3436f7da8405ea217410fa54ac01",
        "0x010001"
      ],
      "transaction": {
        "from": "0x20271f12d8359c672ee574b2f67282984f42a3f8",
        "to": "0xd7f44bf41e2408e73d692624a8a754ee139f0458",
        "gas": "0x60de3",
        "value": "0x0",
        "input": "0xa4133feb0000000000000000000000000000000000000000000000000000000000000000000000000000000000000000000000000000000000000000000000000000006000000000000000000000000000000000000000000000000000000000000001a0000000000000000000000000000000000000000000000000000000000000010100d4a8a98b01e65513c6b2d0e75fb63174994bf145104aec748f9e0a032a7b6fd07f7770ea13b82460684f4d4c9efcb39efa291f9ee5b5bb973ccffa61ff538ef4da1619ced6b88c64654e1b6f1cbccfef6de750c6eef4a0a99dd99e3fa6fa83793cf5c9d165897c621425eb276fd7415e77a59219ffae28c9cb2b6e37aef092c50e70b382c52e857da6ade1eba30a01301c57471a0c0ef6ef29d611b7e029a874617b31b355ab907c3731e5158cddb91dbde9da1f03757e4838351db1cd31c67981749e081bc584e694f15769e08ad9b62d97be3c3567b4730de607d16380f79101d35794c1eca9b3a7a573fac6299893306d3436f7da8405ea217410fa54ac010000000000000000000000000000000000000000000000000000000000000000000000000000000000000000000000000000000000000000000000000000030100010000000000000000000000000000000000000000000000000000000000",
        "nonce": "0x8",
        "chainId": "0x64"
      },
      "additionalContracts": [],
      "isFixedGasLimit": false
    }
  ],
  "receipts": [
    {
      "status": "0x1",
      "cumulativeGasUsed": "0x15a776",
      "logs": [
        {
          "address": "0xd7f44bf41e2408e73d692624a8a754ee139f0458",
          "topics": [
            "0xd564ae0c19e7c4abf1a013f9e736abe2695aa574026614ed29237392b84fa02f",
            "0x0000000000000000000000000000000000000000000000000000000000000000"
          ],
          "data": "0x00000000000000000000000000000000000000000000000000000000000000400000000000000000000000000000000000000000000000000000000000000180000000000000000000000000000000000000000000000000000000000000010100d4a8a98b01e65513c6b2d0e75fb63174994bf145104aec748f9e0a032a7b6fd07f7770ea13b82460684f4d4c9efcb39efa291f9ee5b5bb973ccffa61ff538ef4da1619ced6b88c64654e1b6f1cbccfef6de750c6eef4a0a99dd99e3fa6fa83793cf5c9d165897c621425eb276fd7415e77a59219ffae28c9cb2b6e37aef092c50e70b382c52e857da6ade1eba30a01301c57471a0c0ef6ef29d611b7e029a874617b31b355ab907c3731e5158cddb91dbde9da1f03757e4838351db1cd31c67981749e081bc584e694f15769e08ad9b62d97be3c3567b4730de607d16380f79101d35794c1eca9b3a7a573fac6299893306d3436f7da8405ea217410fa54ac010000000000000000000000000000000000000000000000000000000000000000000000000000000000000000000000000000000000000000000000000000030100010000000000000000000000000000000000000000000000000000000000",
          "blockHash": "0x6f16655d55d5d79b5e1f0144d3a11aa24733672aebd5bd84ec72b44e21aac92a",
          "blockNumber": "0x24dcff2",
          "transactionHash": "0x93d3ce63d1b139398065a1716e67956a34297ee15d389545a2c06ba38d420c72",
          "transactionIndex": "0x7",
          "logIndex": "0x1f",
          "removed": false
        }
      ],
      "logsBloom": "0x00000000000000002000000000000000000000000000000000000000000000000000000000000000000000000000000000000000000000000000000000000000000000000000000000000000000000000000000000000000208000000000000000000000020000000000000000000800000000000000000000000000000000000000000000000000000000000000000000000000000000000000000000000000000000000000000000000000000000000000000000000000000000000000000000002000000000000000000000000000000000000000000000000000000020000000000000000000000000000000000000000000001000000000000000080000",
      "type": "0x0",
      "transactionHash": "0x93d3ce63d1b139398065a1716e67956a34297ee15d389545a2c06ba38d420c72",
      "transactionIndex": "0x7",
      "blockHash": "0x6f16655d55d5d79b5e1f0144d3a11aa24733672aebd5bd84ec72b44e21aac92a",
      "blockNumber": "0x24dcff2",
      "gasUsed": "0x46218",
      "effectiveGasPrice": "0x3d24e7b7",
      "from": "0x20271f12d8359c672ee574b2f67282984f42a3f8",
      "to": "0xd7f44bf41e2408e73d692624a8a754ee139f0458",
      "contractAddress": null
    }
  ],
  "libraries": [],
  "pending": [],
  "returns": {},
  "timestamp": 1740030256,
  "chain": 100,
  "commit": "a1c3e88"
}