{
  "transactions": [
    {
      "hash": "0xc2b2c86c6e668f95d46d3fcb18cea461c1889a9d24e69d8aafeec140f2bd3a7b",
      "transactionType": "CALL",
      "contractName": null,
      "contractAddress": "0xB2971419Bb6437856Eb9Ec8CA3e56958Af45Eee9",
      "function": "vote(uint256,address,bytes,bytes,bytes,bytes)",
      "arguments": [
        "0",
        "0xf9562D5EaC0ACFAe5274Aa30F7231d62818B593C",
        "0xb84f0b06b966a70429b6fe23e6d51055c4d03b53237b6a0031aab48bbfce5bd2039c88b395fd5f1aaf00b842c8b4a55039216d5327670eb1887b7473a4a53f3d1b",
        "0xa8b2511c3fd5b7991438bae77d1c886a26c5938873352df14fe1eb592e6323fdc238ebb4e838dc6aedc01ec995ed7f9b0c24a6553418c6363419d6f7e50977bd6e92d022e1ff3c5d8b39ed62",
        "0x0d00c14777a356fe09e16c92a8e0dca9fbf0aed4ef95ece383e03de3fe860f79",
        "0x12d6d3f3f695b2d9858596982b04f91249aff17d018a7ef3909bcfe91acf611fb133109ac1e5c85478b4248a24498651aa9c5db09836c4b4343ff5c2b643b6d7"
      ],
      "transaction": {
        "type": "0x00",
        "from": "0xf9562d5eac0acfae5274aa30f7231d62818b593c",
        "to": "0xb2971419bb6437856eb9ec8ca3e56958af45eee9",
        "gas": "0x1f25b",
        "value": "0x0",
        "data": "0xff6cc66e0000000000000000000000000000000000000000000000000000000000000000000000000000000000000000f9562d5eac0acfae5274aa30f7231d62818b593c00000000000000000000000000000000000000000000000000000000000000c0000000000000000000000000000000000000000000000000000000000000014000000000000000000000000000000000000000000000000000000000000001c000000000000000000000000000000000000000000000000000000000000002000000000000000000000000000000000000000000000000000000000000000041b84f0b06b966a70429b6fe23e6d51055c4d03b53237b6a0031aab48bbfce5bd2039c88b395fd5f1aaf00b842c8b4a55039216d5327670eb1887b7473a4a53f3d1b00000000000000000000000000000000000000000000000000000000000000000000000000000000000000000000000000000000000000000000000000004ca8b2511c3fd5b7991438bae77d1c886a26c5938873352df14fe1eb592e6323fdc238ebb4e838dc6aedc01ec995ed7f9b0c24a6553418c6363419d6f7e50977bd6e92d022e1ff3c5d8b39ed62000000000000000000000000000000000000000000000000000000000000000000000000000000000000000000000000000000200d00c14777a356fe09e16c92a8e0dca9fbf0aed4ef95ece383e03de3fe860f79000000000000000000000000000000000000000000000000000000000000004012d6d3f3f695b2d9858596982b04f91249aff17d018a7ef3909bcfe91acf611fb133109ac1e5c85478b4248a24498651aa9c5db09836c4b4343ff5c2b643b6d7",
        "nonce": "0x13"
      },
      "additionalContracts": [],
      "isFixedGasLimit": false
    }
  ],
  "receipts": [],
  "libraries": [],
  "pending": [
    "0xc2b2c86c6e668f95d46d3fcb18cea461c1889a9d24e69d8aafeec140f2bd3a7b"
  ],
  "returns": {},
  "timestamp": 1714638526,
  "chain": 100,
  "multi": false,
  "commit": "575b206"
}