{
  "transactions": [
    {
      "hash": "0xc2b2c86c6e668f95d46d3fcb18cea461c1889a9d24e69d8aafeec140f2bd3a7b",
      "transactionType": "CALL",
      "contractName": null,
      "contractAddress": "0xB2971419Bb6437856Eb9Ec8CA3e56958Af45Eee9",
      "function": "vote(uint256,address,bytes,bytes,bytes,bytes)",
      "arguments": [
        "0",
        "0xf9562D5EaC0ACFAe5274Aa30F7231d62818B593C",
        "0xb84f0b06b966a70429b6fe23e6d51055c4d03b53237b6a0031aab48bbfce5bd2039c88b395fd5f1aaf00b842c8b4a55039216d5327670eb1887b7473a4a53f3d1b",
        "0xa8b2511c3fd5b7991438bae77d1c886a26c5938873352df14fe1eb592e6323fdc238ebb4e838dc6aedc01ec995ed7f9b0c24a6553418c6363419d6f7e50977bd6e92d022e1ff3c5d8b39ed62",
        "0x0d00c14777a356fe09e16c92a8e0dca9fbf0aed4ef95ece383e03de3fe860f79",
        "0x12d6d3f3f695b2d9858596982b04f91249aff17d018a7ef3909bcfe91acf611fb133109ac1e5c85478b4248a24498651aa9c5db09836c4b4343ff5c2b643b6d7"
      ],
      "transaction": {
        "type": "0x00",
        "from": "0xf9562d5eac0acfae5274aa30f7231d62818b593c",
        "to": "0xb2971419bb6437856eb9ec8ca3e56958af45eee9",
        "gas": "0x1f25b",
        "value": "0x0",
        "data": "0xff6cc66e0000000000000000000000000000000000000000000000000000000000000000000000000000000000000000f9562d5eac0acfae5274aa30f7231d62818b593c00000000000000000000000000000000000000000000000000000000000000c0000000000000000000000000000000000000000000000000000000000000014000000000000000000000000000000000000000000000000000000000000001c000000000000000000000000000000000000000000000000000000000000002000000000000000000000000000000000000000000000000000000000000000041b84f0b06b966a70429b6fe23e6d51055c4d03b53237b6a0031aab48bbfce5bd2039c88b395fd5f1aaf00b842c8b4a55039216d5327670eb1887b7473a4a53f3d1b00000000000000000000000000000000000000000000000000000000000000000000000000000000000000000000000000000000000000000000000000004ca8b2511c3fd5b7991438bae77d1c886a26c5938873352df14fe1eb592e6323fdc238ebb4e838dc6aedc01ec995ed7f9b0c24a6553418c6363419d6f7e50977bd6e92d022e1ff3c5d8b39ed62000000000000000000000000000000000000000000000000000000000000000000000000000000000000000000000000000000200d00c14777a356fe09e16c92a8e0dca9fbf0aed4ef95ece383e03de3fe860f79000000000000000000000000000000000000000000000000000000000000004012d6d3f3f695b2d9858596982b04f91249aff17d018a7ef3909bcfe91acf611fb133109ac1e5c85478b4248a24498651aa9c5db09836c4b4343ff5c2b643b6d7",
        "nonce": "0x13"
      },
      "additionalContracts": [],
      "isFixedGasLimit": false
    }
  ],
  "receipts": [
    {
      "transactionHash": "0xc2b2c86c6e668f95d46d3fcb18cea461c1889a9d24e69d8aafeec140f2bd3a7b",
      "transactionIndex": "0x1",
      "blockHash": "0xacf1411606ef9c51b9170bb5f2a91b1162df60853a5c3d3fe3d0541fc90a57c9",
      "blockNumber": "0x202c796",
      "from": "0xf9562D5EaC0ACFAe5274Aa30F7231d62818B593C",
      "to": "0xB2971419Bb6437856Eb9Ec8CA3e56958Af45Eee9",
      "cumulativeGasUsed": "0x23647f",
      "gasUsed": "0x168ce",
      "contractAddress": null,
      "logs": [
        {
          "address": "0xB2971419Bb6437856Eb9Ec8CA3e56958Af45Eee9",
          "topics": [
            "0xe14ef84552be78056208429105497c98038b42888a5514c26859cf725bf30815",
            "0x0000000000000000000000000000000000000000000000000000000000000000",
            "0x000000000000000000000000f9562d5eac0acfae5274aa30f7231d62818b593c"
          ],
          "data": "0x00000000000000000000000000000000000000000000000000000000000000800000000000000000000000000000000000000000000000000000000000000100000000000000000000000000000000000000000000000000000000000000018000000000000000000000000000000000000000000000000000000000000001c00000000000000000000000000000000000000000000000000000000000000041b84f0b06b966a70429b6fe23e6d51055c4d03b53237b6a0031aab48bbfce5bd2039c88b395fd5f1aaf00b842c8b4a55039216d5327670eb1887b7473a4a53f3d1b00000000000000000000000000000000000000000000000000000000000000000000000000000000000000000000000000000000000000000000000000004ca8b2511c3fd5b7991438bae77d1c886a26c5938873352df14fe1eb592e6323fdc238ebb4e838dc6aedc01ec995ed7f9b0c24a6553418c6363419d6f7e50977bd6e92d022e1ff3c5d8b39ed62000000000000000000000000000000000000000000000000000000000000000000000000000000000000000000000000000000200d00c14777a356fe09e16c92a8e0dca9fbf0aed4ef95ece383e03de3fe860f79000000000000000000000000000000000000000000000000000000000000004012d6d3f3f695b2d9858596982b04f91249aff17d018a7ef3909bcfe91acf611fb133109ac1e5c85478b4248a24498651aa9c5db09836c4b4343ff5c2b643b6d7",
          "blockHash": "0xacf1411606ef9c51b9170bb5f2a91b1162df60853a5c3d3fe3d0541fc90a57c9",
          "blockNumber": "0x202c796",
          "transactionHash": "0xc2b2c86c6e668f95d46d3fcb18cea461c1889a9d24e69d8aafeec140f2bd3a7b",
          "transactionIndex": "0x1",
          "logIndex": "0x1d8",
          "removed": false
        }
      ],
      "status": "0x1",
      "logsBloom": "0x00000000000000000000000800000000000000000200000000000000000000000000000000000000000000040000000200000000000000000000008000000000000000000000000000000000000000000000000000000000000000000000000000000000020000200000000000000800000000000000002000000000000000000000000000000000000000000000000000000000000000000000000000000000000000000000020000000000000000000000000000000000000000000000000000000000000000000000000000000000000000000000000000000000000020000000000000000000000000000000000040000000000000000000000000000000",
      "type": "0x0",
      "effectiveGasPrice": "0xd09dc300"
    }
  ],
  "libraries": [],
  "pending": [],
  "returns": {},
  "timestamp": 1714638532,
  "chain": 100,
  "multi": false,
  "commit": "575b206"
}