{
  "transactions": [
    {
      "hash": "0xe8f47dcee24a87c0d1b6a59674d07a4f55bde423368a1c4e622f53a64c46a256",
      "transactionType": "CALL",
      "contractName": null,
      "contractAddress": "0xc2958f59c2f333b1ad462c7a3969da1e0b662459",
      "function": "setElectionRegisterPublicKey(uint256,bytes,bytes)",
      "arguments": [
        "5",
        "0xa14fdbf6362961b16e9ef9becd2e8cdd19645d3ecfae9ab5d2054e3cdaaa5cfcc7abaab6c264d389d0bc922fe289a1b80ae29202737e46ffa7f884b764d1f247e4f5b9d5bffa66b21f45bd5895b917f795d1f59407c89594121d862a605cc789b2dee5cb6e60265fe417193f77c0790f7f66a755d92825b2e043d62c0de6e3e4e0fc887d31367b438058cedadc556704addb3abc5f07ebe63c05767c35d952b5c1a0babbaab94c2c68d6d3885f86933c87c56a884b930009b850572576c4634bb7743e23b5d94fa9f59f529d9871b695437989bf9a86e2adecdd9b761564c3b381b36d99dc9bfd72ea76a142774b7970ed182d66087763e581fd03a2955a9f9f",
        "0x010001"
      ],
      "transaction": {
        "from": "0x20271f12d8359c672ee574b2f67282984f42a3f8",
        "to": "0xc2958f59c2f333b1ad462c7a3969da1e0b662459",
        "gas": "0x5e7bc",
        "value": "0x0",
        "input": "0xa4133feb0000000000000000000000000000000000000000000000000000000000000005000000000000000000000000000000000000000000000000000000000000006000000000000000000000000000000000000000000000000000000000000001800000000000000000000000000000000000000000000000000000000000000100a14fdbf6362961b16e9ef9becd2e8cdd19645d3ecfae9ab5d2054e3cdaaa5cfcc7abaab6c264d389d0bc922fe289a1b80ae29202737e46ffa7f884b764d1f247e4f5b9d5bffa66b21f45bd5895b917f795d1f59407c89594121d862a605cc789b2dee5cb6e60265fe417193f77c0790f7f66a755d92825b2e043d62c0de6e3e4e0fc887d31367b438058cedadc556704addb3abc5f07ebe63c05767c35d952b5c1a0babbaab94c2c68d6d3885f86933c87c56a884b930009b850572576c4634bb7743e23b5d94fa9f59f529d9871b695437989bf9a86e2adecdd9b761564c3b381b36d99dc9bfd72ea76a142774b7970ed182d66087763e581fd03a2955a9f9f00000000000000000000000000000000000000000000000000000000000000030100010000000000000000000000000000000000000000000000000000000000",
        "nonce": "0x1b73",
        "chainId": "0x64"
      },
      "additionalContracts": [],
      "isFixedGasLimit": false
    }
  ],
  "receipts": [
    {
      "status": "0x1",
      "cumulativeGasUsed": "0x690dbd",
      "logs": [
        {
          "address": "0xc2958f59c2f333b1ad462c7a3969da1e0b662459",
          "topics": [
            "0xd564ae0c19e7c4abf1a013f9e736abe2695aa574026614ed29237392b84fa02f",
            "0x0000000000000000000000000000000000000000000000000000000000000005"
          ],
          "data": "0x000000000000000000000000000000000000000000000000000000000000004000000000000000000000000000000000000000000000000000000000000001600000000000000000000000000000000000000000000000000000000000000100a14fdbf6362961b16e9ef9becd2e8cdd19645d3ecfae9ab5d2054e3cdaaa5cfcc7abaab6c264d389d0bc922fe289a1b80ae29202737e46ffa7f884b764d1f247e4f5b9d5bffa66b21f45bd5895b917f795d1f59407c89594121d862a605cc789b2dee5cb6e60265fe417193f77c0790f7f66a755d92825b2e043d62c0de6e3e4e0fc887d31367b438058cedadc556704addb3abc5f07ebe63c05767c35d952b5c1a0babbaab94c2c68d6d3885f86933c87c56a884b930009b850572576c4634bb7743e23b5d94fa9f59f529d9871b695437989bf9a86e2adecdd9b761564c3b381b36d99dc9bfd72ea76a142774b7970ed182d66087763e581fd03a2955a9f9f00000000000000000000000000000000000000000000000000000000000000030100010000000000000000000000000000000000000000000000000000000000",
          "blockHash": "0x0538fc9579d6c0954ebeb46ce899d980dc59de74337fb9c847ce4f14bfda1858",
          "blockNumber": "0x26b9f93",
          "transactionHash": "0xe8f47dcee24a87c0d1b6a59674d07a4f55bde423368a1c4e622f53a64c46a256",
          "transactionIndex": "0x5",
          "logIndex": "0xb4",
          "removed": false
        }
      ],
      "logsBloom": "0x00000000000000000000000000000000000000000000000000000000000000400000000000000000000000000000000000000000000000000000000000000000000010000000000000000000000000000000000000000000200000000000000000000000000000000000000000000000000000000000000000000000000000000000000000000000000000000000001000000800000000000000000000000000000000000000000000000100000000000000000000000000000000000000000000002000000000000000000000000000000000000000000000000000000000000000000000000000000000000000000080000000001000000000000000000000",
      "type": "0x2",
      "transactionHash": "0xe8f47dcee24a87c0d1b6a59674d07a4f55bde423368a1c4e622f53a64c46a256",
      "transactionIndex": "0x5",
      "blockHash": "0x0538fc9579d6c0954ebeb46ce899d980dc59de74337fb9c847ce4f14bfda1858",
      "blockNumber": "0x26b9f93",
      "gasUsed": "0x409ab",
      "effectiveGasPrice": "0x4f",
      "from": "0x20271f12d8359c672ee574b2f67282984f42a3f8",
      "to": "0xc2958f59c2f333b1ad462c7a3969da1e0b662459",
      "contractAddress": null
    }
  ],
  "libraries": [],
  "pending": [],
  "returns": {},
  "timestamp": 1750044366,
  "chain": 100,
  "commit": "49077eb"
}