{
  "transactions": [
    {
      "hash": "0xc518c95b0c4ee6170503d2b54f7a32cd1480cf9ef813586e136b91dd42995813",
      "transactionType": "CALL",
      "contractName": null,
      "contractAddress": "0xc2958f59c2f333b1ad462c7a3969da1e0b662459",
      "function": "setElectionRegisterPublicKey(uint256,bytes,bytes)",
      "arguments": [
        "4",
        "0xb51236a81da4d74331042072584ba9f10588c91c3d2474327d7a0007d7ba46dcd624bb0ca72b34fe0f3fe0abaae0e7c1b10c9fee65cd5e27211ef1698cbcab22ad04112f0c196e8619bce7305fd609dae93c6d7ac753469e9ad468c6a119133e9bc8ebcff23c95fca5a2f51509a6aaae52a20b39e3d0fa894b5557fbde554881939c1e05e8e11a411bc63ef32c064f40b82d34e01fcb58253e7d616536cda2cf8597c66a0182423eb21e3d8b669662142ad191e4b8ee5a1e39ca588c7ec5c74f3ebbb2b886f064b3aa37f04a64dd945d31201ba13cf5048b10943b9d40ccbaf668b88e0a3447c829f935c54aaaa1a886697e0ab611a5b63e254a9581a7bd6e0d",
        "0x010001"
      ],
      "transaction": {
        "from": "0x20271f12d8359c672ee574b2f67282984f42a3f8",
        "to": "0xc2958f59c2f333b1ad462c7a3969da1e0b662459",
        "gas": "0x5e7bc",
        "value": "0x0",
        "input": "0xa4133feb0000000000000000000000000000000000000000000000000000000000000004000000000000000000000000000000000000000000000000000000000000006000000000000000000000000000000000000000000000000000000000000001800000000000000000000000000000000000000000000000000000000000000100b51236a81da4d74331042072584ba9f10588c91c3d2474327d7a0007d7ba46dcd624bb0ca72b34fe0f3fe0abaae0e7c1b10c9fee65cd5e27211ef1698cbcab22ad04112f0c196e8619bce7305fd609dae93c6d7ac753469e9ad468c6a119133e9bc8ebcff23c95fca5a2f51509a6aaae52a20b39e3d0fa894b5557fbde554881939c1e05e8e11a411bc63ef32c064f40b82d34e01fcb58253e7d616536cda2cf8597c66a0182423eb21e3d8b669662142ad191e4b8ee5a1e39ca588c7ec5c74f3ebbb2b886f064b3aa37f04a64dd945d31201ba13cf5048b10943b9d40ccbaf668b88e0a3447c829f935c54aaaa1a886697e0ab611a5b63e254a9581a7bd6e0d00000000000000000000000000000000000000000000000000000000000000030100010000000000000000000000000000000000000000000000000000000000",
        "nonce": "0x1b72",
        "chainId": "0x64"
      },
      "additionalContracts": [],
      "isFixedGasLimit": false
    }
  ],
  "receipts": [
    {
      "status": "0x1",
      "cumulativeGasUsed": "0x7cf5c4",
      "logs": [
        {
          "address": "0xc2958f59c2f333b1ad462c7a3969da1e0b662459",
          "topics": [
            "0xd564ae0c19e7c4abf1a013f9e736abe2695aa574026614ed29237392b84fa02f",
            "0x0000000000000000000000000000000000000000000000000000000000000004"
          ],
          "data": "0x000000000000000000000000000000000000000000000000000000000000004000000000000000000000000000000000000000000000000000000000000001600000000000000000000000000000000000000000000000000000000000000100b51236a81da4d74331042072584ba9f10588c91c3d2474327d7a0007d7ba46dcd624bb0ca72b34fe0f3fe0abaae0e7c1b10c9fee65cd5e27211ef1698cbcab22ad04112f0c196e8619bce7305fd609dae93c6d7ac753469e9ad468c6a119133e9bc8ebcff23c95fca5a2f51509a6aaae52a20b39e3d0fa894b5557fbde554881939c1e05e8e11a411bc63ef32c064f40b82d34e01fcb58253e7d616536cda2cf8597c66a0182423eb21e3d8b669662142ad191e4b8ee5a1e39ca588c7ec5c74f3ebbb2b886f064b3aa37f04a64dd945d31201ba13cf5048b10943b9d40ccbaf668b88e0a3447c829f935c54aaaa1a886697e0ab611a5b63e254a9581a7bd6e0d00000000000000000000000000000000000000000000000000000000000000030100010000000000000000000000000000000000000000000000000000000000",
          "blockHash": "0xa80c3c0051c21808290b2255e4caac79e236a547330d16b6e848b0f107283e07",
          "blockNumber": "0x26b9f8d",
          "transactionHash": "0xc518c95b0c4ee6170503d2b54f7a32cd1480cf9ef813586e136b91dd42995813",
          "transactionIndex": "0x7",
          "logIndex": "0xbf",
          "removed": false
        }
      ],
      "logsBloom": "0x00000000000000000000000000000000000000000000000000000000000000400000000000000000000000000000000000000000000000000000000000000000000000000000000000000000000000000000000000000000200000000000000008000000000000000000000000000000000000000000000000000000000000000000000000000000000000000000000000000000000000000000000000000000000000000000000000000100000000000000000000000000002000000000000000002000000000000000000000000000000000008000000000000000000000000000000000000000000000000000000080000000001000000000000000000000",
      "type": "0x2",
      "transactionHash": "0xc518c95b0c4ee6170503d2b54f7a32cd1480cf9ef813586e136b91dd42995813",
      "transactionIndex": "0x7",
      "blockHash": "0xa80c3c0051c21808290b2255e4caac79e236a547330d16b6e848b0f107283e07",
      "blockNumber": "0x26b9f8d",
      "gasUsed": "0x409ab",
      "effectiveGasPrice": "0x4d",
      "from": "0x20271f12d8359c672ee574b2f67282984f42a3f8",
      "to": "0xc2958f59c2f333b1ad462c7a3969da1e0b662459",
      "contractAddress": null
    }
  ],
  "libraries": [],
  "pending": [],
  "returns": {},
  "timestamp": 1750044337,
  "chain": 100,
  "commit": "49077eb"
}