{
  "transactions": [
    {
      "hash": "0x6edf1ccaa39c7fff4fd03c4577470b47415e38b2429851bfe79df4ee8e6c12ee",
      "transactionType": "CALL",
      "contractName": null,
      "contractAddress": "0xc2958f59c2f333b1ad462c7a3969da1e0b662459",
      "function": "setElectionRegisterPublicKey(uint256,bytes,bytes)",
      "arguments": [
        "7",
        "0x9b443f48ce9525d7de910c555ee1139ee3636ee3be9579b68d8c12376a7e70b2871fafc088b600d9df46c8541b1561402e5238b8b88681124ff8ecf8dda6389fde744c9e5969cc76fd8755dc6b46ed93bd61177afb29ae3c16da33ee83901109fc1462f8e80f9e4e66c7220561889c7452e515c1b71cf3e59d214a86e600803a57b96cecb05bf753931a3f6261df255c0a6f8b980a9fb6b1f33f0f8ff604d512753cde584c992ccf5fe0435cbff20761017105ca7ad8cd5d1427208645a752cdaf8217674dfdf4628b213cd4c046421a7d77cf3ff4c65e65a72d308ec49b84d9d9272ed42ff725d1acea589efee4d907e6c917fe462638f1b93ebb07f47f2f1d",
        "0x010001"
      ],
      "transaction": {
        "from": "0x20271f12d8359c672ee574b2f67282984f42a3f8",
        "to": "0xc2958f59c2f333b1ad462c7a3969da1e0b662459",
        "gas": "0x593af",
        "value": "0x0",
        "input": "0xa4133feb00000000000000000000000000000000000000000000000000000000000000070000000000000000000000000000000000000000000000000000000000000060000000000000000000000000000000000000000000000000000000000000018000000000000000000000000000000000000000000000000000000000000001009b443f48ce9525d7de910c555ee1139ee3636ee3be9579b68d8c12376a7e70b2871fafc088b600d9df46c8541b1561402e5238b8b88681124ff8ecf8dda6389fde744c9e5969cc76fd8755dc6b46ed93bd61177afb29ae3c16da33ee83901109fc1462f8e80f9e4e66c7220561889c7452e515c1b71cf3e59d214a86e600803a57b96cecb05bf753931a3f6261df255c0a6f8b980a9fb6b1f33f0f8ff604d512753cde584c992ccf5fe0435cbff20761017105ca7ad8cd5d1427208645a752cdaf8217674dfdf4628b213cd4c046421a7d77cf3ff4c65e65a72d308ec49b84d9d9272ed42ff725d1acea589efee4d907e6c917fe462638f1b93ebb07f47f2f1d00000000000000000000000000000000000000000000000000000000000000030100010000000000000000000000000000000000000000000000000000000000",
        "nonce": "0x3a36",
        "chainId": "0x64"
      },
      "additionalContracts": [],
      "isFixedGasLimit": false
    }
  ],
  "receipts": [
    {
      "status": "0x1",
      "cumulativeGasUsed": "0xfc0a16",
      "logs": [
        {
          "address": "0xc2958f59c2f333b1ad462c7a3969da1e0b662459",
          "topics": [
            "0xd564ae0c19e7c4abf1a013f9e736abe2695aa574026614ed29237392b84fa02f",
            "0x0000000000000000000000000000000000000000000000000000000000000007"
          ],
          "data": "0x0000000000000000000000000000000000000000000000000000000000000040000000000000000000000000000000000000000000000000000000000000016000000000000000000000000000000000000000000000000000000000000001009b443f48ce9525d7de910c555ee1139ee3636ee3be9579b68d8c12376a7e70b2871fafc088b600d9df46c8541b1561402e5238b8b88681124ff8ecf8dda6389fde744c9e5969cc76fd8755dc6b46ed93bd61177afb29ae3c16da33ee83901109fc1462f8e80f9e4e66c7220561889c7452e515c1b71cf3e59d214a86e600803a57b96cecb05bf753931a3f6261df255c0a6f8b980a9fb6b1f33f0f8ff604d512753cde584c992ccf5fe0435cbff20761017105ca7ad8cd5d1427208645a752cdaf8217674dfdf4628b213cd4c046421a7d77cf3ff4c65e65a72d308ec49b84d9d9272ed42ff725d1acea589efee4d907e6c917fe462638f1b93ebb07f47f2f1d00000000000000000000000000000000000000000000000000000000000000030100010000000000000000000000000000000000000000000000000000000000",
          "blockHash": "0x3723d1d8b5aa0e9bd44e78c69a15b0f4f19d9f793febaf0ea4cf3a980a707e64",
          "blockNumber": "0x271db62",
          "transactionHash": "0x6edf1ccaa39c7fff4fd03c4577470b47415e38b2429851bfe79df4ee8e6c12ee",
          "transactionIndex": "0x6",
          "logIndex": "0xf",
          "removed": false
        }
      ],
      "logsBloom": "0x00000000000000000000000000000000000000000000000000000000000000400000000000000000000000000000000000001000000000000000000000000000000020000000000000000000000000000000000000000000200000000000000000000000000000000000000000000000000000000000000000000000000000000000000000000000000000000000000000000000000000000000000000000000000000000000000000000100000000000000000000000000000000000000000000002000000000000000000000000000000000000000000000000100000000000000000000000000000000000000000080000000001000000000000000000000",
      "type": "0x2",
      "transactionHash": "0x6edf1ccaa39c7fff4fd03c4577470b47415e38b2429851bfe79df4ee8e6c12ee",
      "transactionIndex": "0x6",
      "blockHash": "0x3723d1d8b5aa0e9bd44e78c69a15b0f4f19d9f793febaf0ea4cf3a980a707e64",
      "blockNumber": "0x271db62",
      "gasUsed": "0x4099f",
      "effectiveGasPrice": "0x259e",
      "from": "0x20271f12d8359c672ee574b2f67282984f42a3f8",
      "to": "0xc2958f59c2f333b1ad462c7a3969da1e0b662459",
      "contractAddress": null
    }
  ],
  "libraries": [],
  "pending": [],
  "returns": {},
  "timestamp": 1752146012207,
  "chain": 100,
  "commit": "9468068"
}