{
  "transactions": [
    {
      "hash": null,
      "transactionType": "CALL",
      "contractName": null,
      "contractAddress": "0xd7f44bf41e2408e73d692624a8a754ee139f0458",
      "function": "addAP((uint8,address,string,string))",
      "arguments": [
        "(0, 0x0104c532c336535ebDf8417Ea2D033f07Fe33019, OpenPetition AP, https://www.openpetition.de/ap/)"
      ],
      "transaction": {
        "from": "0xf9562d5eac0acfae5274aa30f7231d62818b593c",
        "to": "0xd7f44bf41e2408e73d692624a8a754ee139f0458",
        "gas": "0x21672",
        "value": "0x0",
        "input": "0xad6e96f1000000000000000000000000000000000000000000000000000000000000002000000000000000000000000000000000000000000000000000000000000000000000000000000000000000000104c532c336535ebdf8417ea2d033f07fe33019000000000000000000000000000000000000000000000000000000000000008000000000000000000000000000000000000000000000000000000000000000c0000000000000000000000000000000000000000000000000000000000000000f4f70656e5065746974696f6e2041500000000000000000000000000000000000000000000000000000000000000000000000000000000000000000000000001f68747470733a2f2f7777772e6f70656e7065746974696f6e2e64652f61702f00",
        "nonce": "0x23",
        "chainId": "0x64"
      },
      "additionalContracts": [],
      "isFixedGasLimit": false
    },
    {
      "hash": null,
      "transactionType": "CALL",
      "contractName": null,
      "contractAddress": "0xd7f44bf41e2408e73d692624a8a754ee139f0458",
      "function": "addRegister((uint8,address,string,string))",
      "arguments": [
        "(0, 0x20271F12D8359C672EE574b2f67282984F42a3F8, OpenVote Register, https://register.opn.vote)"
      ],
      "transaction": {
        "from": "0xf9562d5eac0acfae5274aa30f7231d62818b593c",
        "to": "0xd7f44bf41e2408e73d692624a8a754ee139f0458",
        "gas": "0x21469",
        "value": "0x0",
        "input": "0x256fab2f0000000000000000000000000000000000000000000000000000000000000020000000000000000000000000000000000000000000000000000000000000000000000000000000000000000020271f12d8359c672ee574b2f67282984f42a3f8000000000000000000000000000000000000000000000000000000000000008000000000000000000000000000000000000000000000000000000000000000c000000000000000000000000000000000000000000000000000000000000000114f70656e566f7465205265676973746572000000000000000000000000000000000000000000000000000000000000000000000000000000000000000000001968747470733a2f2f72656769737465722e6f706e2e766f746500000000000000",
        "nonce": "0x24",
        "chainId": "0x64"
      },
      "additionalContracts": [],
      "isFixedGasLimit": false
    },
    {
      "hash": null,
      "transactionType": "CALL",
      "contractName": null,
      "contractAddress": "0xd7f44bf41e2408e73d692624a8a754ee139f0458",
      "function": "addSVS((uint8,address,string,string))",
      "arguments": [
        "(0, 0x847507B935658Bdf58F166E0B54C662Bc3942a6f, OpenVote SVS, https://svs.opn.vote)"
      ],
      "transaction": {
        "from": "0xf9562d5eac0acfae5274aa30f7231d62818b593c",
        "to": "0xd7f44bf41e2408e73d692624a8a754ee139f0458",
        "gas": "0x2354e",
        "value": "0x0",
        "input": "0xca3ebbca00000000000000000000000000000000000000000000000000000000000000200000000000000000000000000000000000000000000000000000000000000000000000000000000000000000847507b935658bdf58f166e0b54c662bc3942a6f000000000000000000000000000000000000000000000000000000000000008000000000000000000000000000000000000000000000000000000000000000c0000000000000000000000000000000000000000000000000000000000000000c4f70656e566f7465205356530000000000000000000000000000000000000000000000000000000000000000000000000000000000000000000000000000001468747470733a2f2f7376732e6f706e2e766f7465000000000000000000000000",
        "nonce": "0x25",
        "chainId": "0x64"
      },
      "additionalContracts": [],
      "isFixedGasLimit": false
    }
  ],
  "receipts": [],
  "libraries": [],
  "pending": [],
  "returns": {},
  "timestamp": 1740028512,
  "chain": 100,
  "commit": "a1c3e88"
}