{
  "transactions": [
    {
      "hash": "0x7f9201da44d3fa093636eb74f823b29462b7e3b0b909200af06a40651ab9d536",
      "transactionType": "CALL",
      "contractName": null,
      "contractAddress": "0xd7f44bf41e2408e73d692624a8a754ee139f0458",
      "function": "startElection(uint256)",
      "arguments": [
        "0"
      ],
      "transaction": {
        "from": "0xf9562d5eac0acfae5274aa30f7231d62818b593c",
        "to": "0xd7f44bf41e2408e73d692624a8a754ee139f0458",
        "gas": "0x14cb1",
        "value": "0x0",
        "input": "0x6d32dc4b0000000000000000000000000000000000000000000000000000000000000000",
        "nonce": "0x27",
        "chainId": "0x64"
      },
      "additionalContracts": [],
      "isFixedGasLimit": false
    }
  ],
  "receipts": [
    {
      "status": "0x1",
      "cumulativeGasUsed": "0xe4870",
      "logs": [
        {
          "address": "0xd7f44bf41e2408e73d692624a8a754ee139f0458",
          "topics": [
            "0x12b37df6c3e196249962cd4347a3d9d9e6444d63d7f1bd286129f93ca919fb3d",
            "0x0000000000000000000000000000000000000000000000000000000000000000"
          ],
          "data": "0x00000000000000000000000000000000000000000000000000000000000000000000000000000000000000000000000000000000000000000000000000000001",
          "blockHash": "0x00edf59bd2dd83e75abe17c247881a1cb24e705b7bf641959ca6feb06cf1d553",
          "blockNumber": "0x24dd017",
          "transactionHash": "0x7f9201da44d3fa093636eb74f823b29462b7e3b0b909200af06a40651ab9d536",
          "transactionIndex": "0x6",
          "logIndex": "0xe",
          "removed": false
        }
      ],
      "logsBloom": "0x00000000000000002000000000000000000000000000000000000000000000000000000000000000000000000000000000000000000000000000000000000000000000000000000000000000000000000000000000000000008000000000000000000000020002000000000002000800000000000000000000000000000000000000000000000000000000000000000000000000000000000000000000000000000000000000000000000000000000000000000000000000000000000000000000000000000000000000001000000000000000000000000000000000000020000000000000000000000000000000000000000000000000000000000000080000",
      "type": "0x0",
      "transactionHash": "0x7f9201da44d3fa093636eb74f823b29462b7e3b0b909200af06a40651ab9d536",
      "transactionIndex": "0x6",
      "blockHash": "0x00edf59bd2dd83e75abe17c247881a1cb24e705b7bf641959ca6feb06cf1d553",
      "blockNumber": "0x24dd017",
      "gasUsed": "0xf0de",
      "effectiveGasPrice": "0x3d24e7b7",
      "from": "0xf9562d5eac0acfae5274aa30f7231d62818b593c",
      "to": "0xd7f44bf41e2408e73d692624a8a754ee139f0458",
      "contractAddress": null
    }
  ],
  "libraries": [],
  "pending": [],
  "returns": {},
  "timestamp": 1740030446,
  "chain": 100,
  "commit": "a1c3e88"
}