{
  "transactions": [
    {
      "hash": "0xb29b982c40cbcf3dcda19508a6e0f0d03754bfe7c8c38943b33efa5d809b52e5",
      "transactionType": "CALL",
      "contractName": null,
      "contractAddress": "0xB2971419Bb6437856Eb9Ec8CA3e56958Af45Eee9",
      "function": "startElection(uint256)",
      "arguments": [
        "2"
      ],
      "transaction": {
        "type": "0x00",
        "from": "0xf9562d5eac0acfae5274aa30f7231d62818b593c",
        "to": "0xb2971419bb6437856eb9ec8ca3e56958af45eee9",
        "gas": "0x13c31",
        "value": "0x0",
        "data": "0x6d32dc4b0000000000000000000000000000000000000000000000000000000000000002",
        "nonce": "0x17"
      },
      "additionalContracts": [],
      "isFixedGasLimit": false
    }
  ],
  "receipts": [],
  "libraries": [],
  "pending": [
    "0xb29b982c40cbcf3dcda19508a6e0f0d03754bfe7c8c38943b33efa5d809b52e5"
  ],
  "returns": {},
  "timestamp": 1714640497,
  "chain": 100,
  "multi": false,
  "commit": "575b206"
}