{
  "transactions": [
    {
      "hash": "0x338ee85af57a1ba2c10bd8ffdfd59ccb205c3796104c945f0f798fbb2fde8bdf",
      "transactionType": "CALL",
      "contractName": null,
      "contractAddress": "0xB2971419Bb6437856Eb9Ec8CA3e56958Af45Eee9",
      "function": "startElection(uint256)",
      "arguments": [
        "0"
      ],
      "transaction": {
        "type": "0x00",
        "from": "0xf9562d5eac0acfae5274aa30f7231d62818b593c",
        "to": "0xb2971419bb6437856eb9ec8ca3e56958af45eee9",
        "gas": "0x13c22",
        "value": "0x0",
        "data": "0x6d32dc4b0000000000000000000000000000000000000000000000000000000000000000",
        "nonce": "0x12"
      },
      "additionalContracts": [],
      "isFixedGasLimit": false
    }
  ],
  "receipts": [
    {
      "transactionHash": "0x338ee85af57a1ba2c10bd8ffdfd59ccb205c3796104c945f0f798fbb2fde8bdf",
      "transactionIndex": "0x1",
      "blockHash": "0x0604be99782832597072037480b3c810ed1a0f05c90293ca3e290d893ceeb49d",
      "blockNumber": "0x202c695",
      "from": "0xf9562D5EaC0ACFAe5274Aa30F7231d62818B593C",
      "to": "0xB2971419Bb6437856Eb9Ec8CA3e56958Af45Eee9",
      "cumulativeGasUsed": "0x5e747",
      "gasUsed": "0xe4e0",
      "contractAddress": null,
      "logs": [
        {
          "address": "0xB2971419Bb6437856Eb9Ec8CA3e56958Af45Eee9",
          "topics": [
            "0x12b37df6c3e196249962cd4347a3d9d9e6444d63d7f1bd286129f93ca919fb3d",
            "0x0000000000000000000000000000000000000000000000000000000000000000"
          ],
          "data": "0x00000000000000000000000000000000000000000000000000000000000000000000000000000000000000000000000000000000000000000000000000000001",
          "blockHash": "0x0604be99782832597072037480b3c810ed1a0f05c90293ca3e290d893ceeb49d",
          "blockNumber": "0x202c695",
          "transactionHash": "0x338ee85af57a1ba2c10bd8ffdfd59ccb205c3796104c945f0f798fbb2fde8bdf",
          "transactionIndex": "0x1",
          "logIndex": "0x42",
          "removed": false
        }
      ],
      "status": "0x1",
      "logsBloom": "0x00000000000000000000000000000000000000000000000000000000000000000000000000000000000000000000000200000000000000000000000000000000000000000000000000000000000000000000000000000000000000000000000000000000020002000000000002000800000000000000002000000000000000000000000000000000000000000000000000000000000000000000000000000000000000000000000000000000000000000000000000000000000000000000000000000000000000000000001000000000000000000000000000000000000020000000000000000000000000000000000040000000000000000000000000000000",
      "type": "0x0",
      "effectiveGasPrice": "0xd09dc300"
    }
  ],
  "libraries": [],
  "pending": [],
  "returns": {},
  "timestamp": 1714637223,
  "chain": 100,
  "multi": false,
  "commit": "575b206"
}