{
  "transactions": [
    {
      "hash": "0x9678ef1bb2ec0e00cd3db3e047c7ae22db20a68f44b0d8c23c9d12f4e1e9d772",
      "transactionType": "CALL",
      "contractName": null,
      "contractAddress": "0xb2971419bb6437856eb9ec8ca3e56958af45eee9",
      "function": "startElection(uint256)",
      "arguments": [
        "6"
      ],
      "transaction": {
        "from": "0xf9562d5eac0acfae5274aa30f7231d62818b593c",
        "to": "0xb2971419bb6437856eb9ec8ca3e56958af45eee9",
        "gas": "0x13c31",
        "value": "0x0",
        "input": "0x6d32dc4b0000000000000000000000000000000000000000000000000000000000000006",
        "nonce": "0x20",
        "chainId": "0x64"
      },
      "additionalContracts": [],
      "isFixedGasLimit": false
    }
  ],
  "receipts": [
    {
      "status": "0x1",
      "cumulativeGasUsed": "0x178c11",
      "logs": [
        {
          "address": "0xb2971419bb6437856eb9ec8ca3e56958af45eee9",
          "topics": [
            "0x12b37df6c3e196249962cd4347a3d9d9e6444d63d7f1bd286129f93ca919fb3d",
            "0x0000000000000000000000000000000000000000000000000000000000000006"
          ],
          "data": "0x00000000000000000000000000000000000000000000000000000000000000000000000000000000000000000000000000000000000000000000000000000001",
          "blockHash": "0xeb748036e50c5b3c421382028ae16eb6f48f6cc532a67f1d8b9dbfae7bafa90d",
          "blockNumber": "0x227daa8",
          "transactionHash": "0x9678ef1bb2ec0e00cd3db3e047c7ae22db20a68f44b0d8c23c9d12f4e1e9d772",
          "transactionIndex": "0x6",
          "logIndex": "0xd",
          "removed": false
        }
      ],
      "logsBloom": "0x00000000000000000000000000000000000000000000000000000000000000000000000000000000000000000000000200000000000400000000000000000000000000000000000000000000000000000000000000000000000000000000000000000000000002000000000002000000000000000000002000000000000000000000000400000000000000000000000000000000000000000000000000000000000000000000000000000000000000000000000000000000000000080000000000000000000000000000001000000000000000000000000000000000000000000000000000000000000000000000000040000000000000000000000000000000",
      "type": "0x2",
      "transactionHash": "0x9678ef1bb2ec0e00cd3db3e047c7ae22db20a68f44b0d8c23c9d12f4e1e9d772",
      "transactionIndex": "0x6",
      "blockHash": "0xeb748036e50c5b3c421382028ae16eb6f48f6cc532a67f1d8b9dbfae7bafa90d",
      "blockNumber": "0x227daa8",
      "gasUsed": "0xe4ec",
      "effectiveGasPrice": "0x52412105",
      "from": "0xf9562d5eac0acfae5274aa30f7231d62818b593c",
      "to": "0xb2971419bb6437856eb9ec8ca3e56958af45eee9",
      "contractAddress": null
    }
  ],
  "libraries": [],
  "pending": [],
  "returns": {},
  "timestamp": 1727187394,
  "chain": 100,
  "commit": "72d571a"
}