{
  "transactions": [
    {
      "hash": "0x338ee85af57a1ba2c10bd8ffdfd59ccb205c3796104c945f0f798fbb2fde8bdf",
      "transactionType": "CALL",
      "contractName": null,
      "contractAddress": "0xB2971419Bb6437856Eb9Ec8CA3e56958Af45Eee9",
      "function": "startElection(uint256)",
      "arguments": [
        "0"
      ],
      "transaction": {
        "type": "0x00",
        "from": "0xf9562d5eac0acfae5274aa30f7231d62818b593c",
        "to": "0xb2971419bb6437856eb9ec8ca3e56958af45eee9",
        "gas": "0x13c22",
        "value": "0x0",
        "data": "0x6d32dc4b0000000000000000000000000000000000000000000000000000000000000000",
        "nonce": "0x12"
      },
      "additionalContracts": [],
      "isFixedGasLimit": false
    }
  ],
  "receipts": [],
  "libraries": [],
  "pending": [
    "0x338ee85af57a1ba2c10bd8ffdfd59ccb205c3796104c945f0f798fbb2fde8bdf"
  ],
  "returns": {},
  "timestamp": 1714637216,
  "chain": 100,
  "multi": false,
  "commit": "575b206"
}